{
  "contracts/DefiHorseIBCO.sol": {
    "DefiHorseIBCO": {
      "abi": [
        {
          "inputs": [
            {
              "internalType": "contract IERC20",
              "name": "DFH",
              "type": "address"
            },
            {
              "internalType": "contract IERC20",
              "name": "_busd",
              "type": "address"
            }
          ],
          "stateMutability": "nonpayable",
          "type": "constructor"
        },
        {
          "anonymous": false,
          "inputs": [
            {
              "indexed": true,
              "internalType": "address",
              "name": "account",
              "type": "address"
            },
            {
              "indexed": false,
              "internalType": "uint256",
              "name": "userShare",
              "type": "uint256"
            },
            {
              "indexed": false,
              "internalType": "uint256",
              "name": "DFHAmount",
              "type": "uint256"
            }
          ],
          "name": "Claim",
          "type": "event"
        },
        {
          "anonymous": false,
          "inputs": [
            {
              "indexed": true,
              "internalType": "address",
              "name": "account",
              "type": "address"
            },
            {
              "indexed": false,
              "internalType": "uint256",
              "name": "amount",
              "type": "uint256"
            }
          ],
          "name": "Deposit",
          "type": "event"
        },
        {
          "anonymous": false,
          "inputs": [
            {
              "indexed": true,
              "internalType": "address",
              "name": "previousOwner",
              "type": "address"
            },
            {
              "indexed": true,
              "internalType": "address",
              "name": "newOwner",
              "type": "address"
            }
          ],
          "name": "OwnershipTransferred",
          "type": "event"
        },
        {
          "anonymous": false,
          "inputs": [
            {
              "indexed": true,
              "internalType": "address",
              "name": "account",
              "type": "address"
            },
            {
              "indexed": false,
              "internalType": "uint256",
              "name": "amount",
              "type": "uint256"
            }
          ],
          "name": "Withdraw",
          "type": "event"
        },
        {
          "inputs": [],
          "name": "DECIMALS",
          "outputs": [
            {
              "internalType": "uint256",
              "name": "",
              "type": "uint256"
            }
          ],
          "stateMutability": "view",
          "type": "function"
        },
        {
          "inputs": [],
          "name": "DEFIHORSE",
          "outputs": [
            {
              "internalType": "contract IERC20",
              "name": "",
              "type": "address"
            }
          ],
          "stateMutability": "view",
          "type": "function"
        },
        {
          "inputs": [],
          "name": "END",
          "outputs": [
            {
              "internalType": "uint256",
              "name": "",
              "type": "uint256"
            }
          ],
          "stateMutability": "view",
          "type": "function"
        },
        {
          "inputs": [],
          "name": "START",
          "outputs": [
            {
              "internalType": "uint256",
              "name": "",
              "type": "uint256"
            }
          ],
          "stateMutability": "view",
          "type": "function"
        },
        {
          "inputs": [],
          "name": "TOTAL_DISTRIBUTE_AMOUNT",
          "outputs": [
            {
              "internalType": "uint256",
              "name": "",
              "type": "uint256"
            }
          ],
          "stateMutability": "view",
          "type": "function"
        },
        {
          "inputs": [],
          "name": "claim",
          "outputs": [],
          "stateMutability": "nonpayable",
          "type": "function"
        },
        {
          "inputs": [
            {
              "internalType": "uint256",
              "name": "amount",
              "type": "uint256"
            }
          ],
          "name": "deposit",
          "outputs": [],
          "stateMutability": "nonpayable",
          "type": "function"
        },
        {
          "inputs": [
            {
              "internalType": "address",
              "name": "_user",
              "type": "address"
            },
            {
              "internalType": "uint256",
              "name": "amount",
              "type": "uint256"
            }
          ],
          "name": "getAccumulatedAfterDeposit",
          "outputs": [
            {
              "internalType": "uint256",
              "name": "",
              "type": "uint256"
            }
          ],
          "stateMutability": "view",
          "type": "function"
        },
        {
          "inputs": [
            {
              "internalType": "address",
              "name": "_user",
              "type": "address"
            }
          ],
          "name": "getEstReceivedToken",
          "outputs": [
            {
              "internalType": "uint256",
              "name": "",
              "type": "uint256"
            }
          ],
          "stateMutability": "view",
          "type": "function"
        },
        {
          "inputs": [],
          "name": "getEstTokenPrice",
          "outputs": [
            {
              "internalType": "uint256",
              "name": "",
              "type": "uint256"
            }
          ],
          "stateMutability": "view",
          "type": "function"
        },
        {
          "inputs": [
            {
              "internalType": "address",
              "name": "_user",
              "type": "address"
            },
            {
              "internalType": "uint256",
              "name": "amount",
              "type": "uint256"
            }
          ],
          "name": "getLockAmountAfterDeposit",
          "outputs": [
            {
              "internalType": "uint256",
              "name": "",
              "type": "uint256"
            }
          ],
          "stateMutability": "view",
          "type": "function"
        },
        {
          "inputs": [
            {
              "internalType": "address",
              "name": "_user",
              "type": "address"
            }
          ],
          "name": "getLockedAmount",
          "outputs": [
            {
              "internalType": "uint256",
              "name": "",
              "type": "uint256"
            }
          ],
          "stateMutability": "view",
          "type": "function"
        },
        {
          "inputs": [
            {
              "internalType": "address",
              "name": "_user",
              "type": "address"
            }
          ],
          "name": "getUserDeposited",
          "outputs": [
            {
              "internalType": "uint256",
              "name": "",
              "type": "uint256"
            }
          ],
          "stateMutability": "view",
          "type": "function"
        },
        {
          "inputs": [
            {
              "internalType": "address",
              "name": "_user",
              "type": "address"
            }
          ],
          "name": "getWithdrawableAmount",
          "outputs": [
            {
              "internalType": "uint256",
              "name": "",
              "type": "uint256"
            }
          ],
          "stateMutability": "view",
          "type": "function"
        },
        {
          "inputs": [],
          "name": "owner",
          "outputs": [
            {
              "internalType": "address",
              "name": "",
              "type": "address"
            }
          ],
          "stateMutability": "view",
          "type": "function"
        },
        {
          "inputs": [
            {
              "internalType": "address",
              "name": "",
              "type": "address"
            }
          ],
          "name": "provided",
          "outputs": [
            {
              "internalType": "uint256",
              "name": "",
              "type": "uint256"
            }
          ],
          "stateMutability": "view",
          "type": "function"
        },
        {
          "inputs": [],
          "name": "renounceOwnership",
          "outputs": [],
          "stateMutability": "nonpayable",
          "type": "function"
        },
        {
          "inputs": [],
          "name": "totalProvided",
          "outputs": [
            {
              "internalType": "uint256",
              "name": "",
              "type": "uint256"
            }
          ],
          "stateMutability": "view",
          "type": "function"
        },
        {
          "inputs": [
            {
              "internalType": "address",
              "name": "newOwner",
              "type": "address"
            }
          ],
          "name": "transferOwnership",
          "outputs": [],
          "stateMutability": "nonpayable",
          "type": "function"
        },
        {
          "inputs": [
            {
              "internalType": "uint256",
              "name": "amount",
              "type": "uint256"
            }
          ],
          "name": "withdraw",
          "outputs": [],
          "stateMutability": "nonpayable",
          "type": "function"
        },
        {
          "inputs": [],
          "name": "withdrawRemainedDEFIHORSE",
          "outputs": [],
          "stateMutability": "nonpayable",
          "type": "function"
        },
        {
          "inputs": [],
          "name": "withdrawSaleFunds",
          "outputs": [],
          "stateMutability": "nonpayable",
          "type": "function"
        },
        {
          "inputs": [],
          "name": "withdrawUnclaimedDEFIHORSE",
          "outputs": [],
          "stateMutability": "nonpayable",
          "type": "function"
        }
      ],
      "evm": {
        "bytecode": {
          "linkReferences": {},
          "object": "60a060405260006002553480156200001657600080fd5b50604051620019b5380380620019b58339810160408190526200003991620000e9565b62000044336200007c565b60609190911b6001600160601b031916608052600180546001600160a01b0319166001600160a01b0390921691909117905562000120565b600080546001600160a01b038381166001600160a01b0319831681178455604051919092169283917f8be0079c531659141344cd1fd0a4f28419497f9722a3daafe3b4186f6b6457e09190a35050565b80516001600160a01b0381168114620000e457600080fd5b919050565b60008060408385031215620000fc578182fd5b6200010783620000cc565b91506200011760208401620000cc565b90509250929050565b60805160601c61184c620001696000396000818161020d0152818161047c0152818161077b0152818161096e01528181610e3b01528181610f2a0152610fb6015261184c6000f3fe608060405234801561001057600080fd5b506004361061014d5760003560e01c80639ddb9ee1116100c3578063e6610f691161007c578063e6610f6914610290578063efe7a50414610298578063f2fde38b146102a0578063f5686444146102b3578063f6777175146102dc578063ff1582ed146102ef5761014d565b80639ddb9ee11461022f578063aa1cf2a21461024f578063ab3f870314610257578063b6b55f251461026a578063ba9a061a1461027d578063bbd50dab146102885761014d565b80632e1a7d4d116101155780632e1a7d4d146101ad5780634e71d92d146101c0578063715018a6146101c85780638da5cb5b146101d0578063929ec537146101f557806392f83ea4146102085761014d565b806302e3cb0b1461015257806309128d751461016e5780631c3cf417146101785780632037730e1461018b5780632e0f26251461019e575b600080fd5b61015b60025481565b6040519081526020015b60405180910390f35b6101766102f7565b005b61015b610186366004611632565b6104a6565b61015b610199366004611618565b61050b565b61015b670de0b6b3a764000081565b6101766101bb36600461167b565b61051e565b6101766106ce565b6101766107e9565b6000546001600160a01b03165b6040516001600160a01b039091168152602001610165565b61015b610203366004611618565b61081f565b6101dd7f000000000000000000000000000000000000000000000000000000000000000081565b61015b61023d366004611618565b60036020526000908152604090205481565b61015b61082a565b61015b610265366004611632565b610843565b61017661027836600461167b565b610890565b61015b6361e26f5681565b610176610bdc565b610176610d91565b61015b610fdd565b6101766102ae366004611618565b610fed565b61015b6102c1366004611618565b6001600160a01b031660009081526003602052604090205490565b61015b6102ea366004611618565b611085565b61015b611090565b6000546001600160a01b0316331461032a5760405162461bcd60e51b815260040161032190611731565b60405180910390fd5b4261033b6361e26f566104b0611766565b106103585760405162461bcd60e51b8152600401610321906116fa565b600a61036d670de0b6b3a7640000600261179e565b610377919061177e565b600254106103e15760405162461bcd60e51b815260206004820152603160248201527f546f74616c2070726f7669646564206d757374206265206c657373207468616e604482015270081b5a5b9a5b585b081c1c9bdd9a591959607a1b6064820152608401610321565b60006001600a6103fa670de0b6b3a7640000600261179e565b610404919061177e565b60025461041d670de0b6b3a7640000630131c94061179e565b610427919061179e565b610431919061177e565b610447670de0b6b3a7640000630131c94061179e565b61045191906117bd565b61045b91906117bd565b90506104a36104726000546001600160a01b031690565b6001600160a01b037f00000000000000000000000000000000000000000000000000000000000000001690836110f6565b50565b6001600160a01b03821660009081526003602052604081205481906104ee906104d0908590611766565b6001600160a01b03861660009081526004602052604090205461115e565b90506104f981611175565b61050390826117bd565b949350505050565b6000610516826112a3565b90505b919050565b6361e26f564211801561053f575061053c6361e26f566104b0611766565b42105b6105a25760405162461bcd60e51b815260206004820152602e60248201527f4f6e6c7920776974686472617761626c6520647572696e6720746865204f666660448201526d32b934b73390323ab930ba34b7b760911b6064820152608401610321565b336000908152600360205260409020548111156105f85760405162461bcd60e51b8152602060048201526014602482015273496e73756666696369656e742062616c616e636560601b6044820152606401610321565b61060133611305565b8111156106415760405162461bcd60e51b815260206004820152600e60248201526d125b9d985b1a5908185b5bdd5b9d60921b6044820152606401610321565b33600090815260036020526040812080548392906106609084906117bd565b92505081905550806002600082825461067991906117bd565b9091555050600154610695906001600160a01b031633836110f6565b60405181815233907f884edad9ce6fa2440d8a54cc123490eb96d2768479d49ff9c7366125a9424364906020015b60405180910390a250565b6106de6361e26f566104b0611766565b42116106fc5760405162461bcd60e51b8152600401610321906116fa565b336000908152600360205260409020546107485760405162461bcd60e51b815260206004820152600d60248201526c456d7074792062616c616e636560981b6044820152606401610321565b3360008181526003602052604081205491610762906112a3565b336000818152600360205260408120559091506107aa907f00000000000000000000000000000000000000000000000000000000000000006001600160a01b031690836110f6565b604080518381526020810183905233917f34fcbac0073d7c3d388e51312faf357774904998eeb8fca628b9e6f65ee1cbf7910160405180910390a25050565b6000546001600160a01b031633146108135760405162461bcd60e51b815260040161032190611731565b61081d600061135b565b565b6000610516826113ab565b610840670de0b6b3a7640000630131c94061179e565b81565b6001600160a01b0382166000908152600360205260408120546108899061086b908490611766565b6001600160a01b03851660009081526004602052604090205461115e565b9392505050565b426361e26f5611156108e45760405162461bcd60e51b815260206004820181905260248201527f546865206f66666572696e6720686173206e6f742073746172746564207965746044820152606401610321565b6108f46361e26f566104b0611766565b4211156109435760405162461bcd60e51b815260206004820152601e60248201527f546865206f66666572696e672068617320616c726561647920656e64656400006044820152606401610321565b610959670de0b6b3a7640000630131c94061179e565b6040516370a0823160e01b81523060048201527f00000000000000000000000000000000000000000000000000000000000000006001600160a01b0316906370a082319060240160206040518083038186803b1580156109b857600080fd5b505afa1580156109cc573d6000803e3d6000fd5b505050506040513d601f19601f820116820180604052508101906109f09190611693565b14610a4e5760405162461bcd60e51b815260206004820152602860248201527f496e73756666696369656e742044454649484f52534520746f6b656e20696e2060448201526718dbdb9d1c9858dd60c21b6064820152608401610321565b600154604051636eb1769f60e11b815233600482015230602482015282916001600160a01b03169063dd62ed3e9060440160206040518083038186803b158015610a9757600080fd5b505afa158015610aab573d6000803e3d6000fd5b505050506040513d601f19601f82011682018060405250810190610acf9190611693565b1015610b1d5760405162461bcd60e51b815260206004820152601960248201527f43616c6c6572206d75737420617070726f7665206669727374000000000000006044820152606401610321565b600154610b35906001600160a01b03163330846113d7565b8060026000828254610b479190611766565b90915550503360009081526003602052604081208054839290610b6b908490611766565b909155505033600090815260046020908152604080832054600390925290912054610b96919061115e565b33600081815260046020526040908190209290925590517fe1fffcc4923d04b559f4d29a8bfc6cda04eb5b0d3c460751c2402c5c5cc9109c906106c39084815260200190565b6000546001600160a01b03163314610c065760405162461bcd60e51b815260040161032190611731565b42610c176361e26f566104b0611766565b10610c345760405162461bcd60e51b8152600401610321906116fa565b6001546040516370a0823160e01b81523060048201526000916001600160a01b0316906370a082319060240160206040518083038186803b158015610c7857600080fd5b505afa158015610c8c573d6000803e3d6000fd5b505050506040513d601f19601f82011682018060405250810190610cb09190611693565b11610cfd5760405162461bcd60e51b815260206004820181905260248201527f42616c616e6365206f662074686520636f6e747261637420697320656d7074796044820152606401610321565b6001546040516370a0823160e01b815230600482015261081d9133916001600160a01b03909116906370a082319060240160206040518083038186803b158015610d4657600080fd5b505afa158015610d5a573d6000803e3d6000fd5b505050506040513d601f19601f82011682018060405250810190610d7e9190611693565b6001546001600160a01b031691906110f6565b6000546001600160a01b03163314610dbb5760405162461bcd60e51b815260040161032190611731565b42610dcc6361e26f566104b0611766565b610dd99062278d00611766565b10610e265760405162461bcd60e51b815260206004820152601960248201527f5769746864726177616c20697320756e617661696c61626c65000000000000006044820152606401610321565b6040516370a0823160e01b81523060048201527f00000000000000000000000000000000000000000000000000000000000000006001600160a01b0316906370a082319060240160206040518083038186803b158015610e8557600080fd5b505afa158015610e99573d6000803e3d6000fd5b505050506040513d601f19601f82011682018060405250810190610ebd9190611693565b610f005760405162461bcd60e51b81526020600482015260146024820152734e6f20746f6b656e20746f20776974686472617760601b6044820152606401610321565b61081d610f156000546001600160a01b031690565b6040516370a0823160e01b81523060048201527f00000000000000000000000000000000000000000000000000000000000000006001600160a01b0316906370a082319060240160206040518083038186803b158015610f7457600080fd5b505afa158015610f88573d6000803e3d6000fd5b505050506040513d601f19601f82011682018060405250810190610fac9190611693565b6001600160a01b037f00000000000000000000000000000000000000000000000000000000000000001691906110f6565b6108406361e26f566104b0611766565b6000546001600160a01b031633146110175760405162461bcd60e51b815260040161032190611731565b6001600160a01b03811661107c5760405162461bcd60e51b815260206004820152602660248201527f4f776e61626c653a206e6577206f776e657220697320746865207a65726f206160448201526564647265737360d01b6064820152608401610321565b6104a38161135b565b600061051682611305565b60006110a8670de0b6b3a7640000630131c94061179e565b670de0b6b3a76400006110dd600254600a670de0b6b3a764000060026110ce919061179e565b6110d8919061177e565b61115e565b6110e7919061179e565b6110f1919061177e565b905090565b6040516001600160a01b03831660248201526044810182905261115990849063a9059cbb60e01b906064015b60408051601f198184030181529190526020810180516001600160e01b03166001600160e01b031990931692909217909152611415565b505050565b60008183101561116e5781610889565b5090919050565b6000600a61118d670de0b6b3a76400006107d061179e565b611197919061177e565b82116111bb5760646111aa83604661179e565b6111b4919061177e565b9050610519565b6111d0670de0b6b3a764000062030d4061179e565b821161127a5760006111ea670de0b6b3a76400008461177e565b90506000633b9aca006111fd838061179e565b611209906106ad61179e565b611213919061177e565b90506000606461122484604461179e565b61122e919061177e565b905060006103e88261124385620116c0611766565b61124d91906117bd565b611257919061177e565b90506064611265828861179e565b61126f919061177e565b945050505050610519565b61128f670de0b6b3a764000062030d4061179e565b8211156105195760646111aa83600361179e565b6001600160a01b038116600090815260036020526040812054600280546112da91600a906110ce90670de0b6b3a76400009061179e565b816112f1670de0b6b3a7640000630131c94061179e565b6112fb919061179e565b610889919061177e565b6001600160a01b03811660009081526004602052604081205461088961132a82611175565b611333856113ab565b6001600160a01b03861660009081526003602052604090205461135691906117bd565b6114e7565b600080546001600160a01b038381166001600160a01b0319831681178455604051919092169283917f8be0079c531659141344cd1fd0a4f28419497f9722a3daafe3b4186f6b6457e09190a35050565b6001600160a01b0381166000908152600460205260408120546113cd81611175565b61088990826117bd565b6040516001600160a01b038085166024830152831660448201526064810182905261140f9085906323b872dd60e01b90608401611122565b50505050565b600061146a826040518060400160405280602081526020017f5361666545524332303a206c6f772d6c6576656c2063616c6c206661696c6564815250856001600160a01b03166114f69092919063ffffffff16565b8051909150156111595780806020019051810190611488919061165b565b6111595760405162461bcd60e51b815260206004820152602a60248201527f5361666545524332303a204552433230206f7065726174696f6e20646964206e6044820152691bdd081cdd58d8d9595960b21b6064820152608401610321565b600081831061116e5781610889565b6060610503848460008585843b61154f5760405162461bcd60e51b815260206004820152601d60248201527f416464726573733a2063616c6c20746f206e6f6e2d636f6e74726163740000006044820152606401610321565b600080866001600160a01b0316858760405161156b91906116ab565b60006040518083038185875af1925050503d80600081146115a8576040519150601f19603f3d011682016040523d82523d6000602084013e6115ad565b606091505b50915091506115bd8282866115c8565b979650505050505050565b606083156115d7575081610889565b8251156115e75782518084602001fd5b8160405162461bcd60e51b815260040161032191906116c7565b80356001600160a01b038116811461051957600080fd5b600060208284031215611629578081fd5b61088982611601565b60008060408385031215611644578081fd5b61164d83611601565b946020939093013593505050565b60006020828403121561166c578081fd5b81518015158114610889578182fd5b60006020828403121561168c578081fd5b5035919050565b6000602082840312156116a4578081fd5b5051919050565b600082516116bd8184602087016117d4565b9190910192915050565b60006020825282518060208401526116e68160408501602087016117d4565b601f01601f19169190910160400192915050565b6020808252601a908201527f546865206f66666572696e6720686173206e6f7420656e646564000000000000604082015260600190565b6020808252818101527f4f776e61626c653a2063616c6c6572206973206e6f7420746865206f776e6572604082015260600190565b6000821982111561177957611779611800565b500190565b60008261179957634e487b7160e01b81526012600452602481fd5b500490565b60008160001904831182151516156117b8576117b8611800565b500290565b6000828210156117cf576117cf611800565b500390565b60005b838110156117ef5781810151838201526020016117d7565b8381111561140f5750506000910152565b634e487b7160e01b600052601160045260246000fdfea2646970667358221220d0d99016014049135ff2bdec72d4a3b9968d0e45872b3e3fc2adc54f6256dc9164736f6c63430008020033",
          "opcodes": "PUSH1 0xA0 PUSH1 0x40 MSTORE PUSH1 0x0 PUSH1 0x2 SSTORE CALLVALUE DUP1 ISZERO PUSH3 0x16 JUMPI PUSH1 0x0 DUP1 REVERT JUMPDEST POP PUSH1 0x40 MLOAD PUSH3 0x19B5 CODESIZE SUB DUP1 PUSH3 0x19B5 DUP4 CODECOPY DUP2 ADD PUSH1 0x40 DUP2 SWAP1 MSTORE PUSH3 0x39 SWAP2 PUSH3 0xE9 JUMP JUMPDEST PUSH3 0x44 CALLER PUSH3 0x7C JUMP JUMPDEST PUSH1 0x60 SWAP2 SWAP1 SWAP2 SHL PUSH1 0x1 PUSH1 0x1 PUSH1 0x60 SHL SUB NOT AND PUSH1 0x80 MSTORE PUSH1 0x1 DUP1 SLOAD PUSH1 0x1 PUSH1 0x1 PUSH1 0xA0 SHL SUB NOT AND PUSH1 0x1 PUSH1 0x1 PUSH1 0xA0 SHL SUB SWAP1 SWAP3 AND SWAP2 SWAP1 SWAP2 OR SWAP1 SSTORE PUSH3 0x120 JUMP JUMPDEST PUSH1 0x0 DUP1 SLOAD PUSH1 0x1 PUSH1 0x1 PUSH1 0xA0 SHL SUB DUP4 DUP2 AND PUSH1 0x1 PUSH1 0x1 PUSH1 0xA0 SHL SUB NOT DUP4 AND DUP2 OR DUP5 SSTORE PUSH1 0x40 MLOAD SWAP2 SWAP1 SWAP3 AND SWAP3 DUP4 SWAP2 PUSH32 0x8BE0079C531659141344CD1FD0A4F28419497F9722A3DAAFE3B4186F6B6457E0 SWAP2 SWAP1 LOG3 POP POP JUMP JUMPDEST DUP1 MLOAD PUSH1 0x1 PUSH1 0x1 PUSH1 0xA0 SHL SUB DUP2 AND DUP2 EQ PUSH3 0xE4 JUMPI PUSH1 0x0 DUP1 REVERT JUMPDEST SWAP2 SWAP1 POP JUMP JUMPDEST PUSH1 0x0 DUP1 PUSH1 0x40 DUP4 DUP6 SUB SLT ISZERO PUSH3 0xFC JUMPI DUP2 DUP3 REVERT JUMPDEST PUSH3 0x107 DUP4 PUSH3 0xCC JUMP JUMPDEST SWAP2 POP PUSH3 0x117 PUSH1 0x20 DUP5 ADD PUSH3 0xCC JUMP JUMPDEST SWAP1 POP SWAP3 POP SWAP3 SWAP1 POP JUMP JUMPDEST PUSH1 0x80 MLOAD PUSH1 0x60 SHR PUSH2 0x184C PUSH3 0x169 PUSH1 0x0 CODECOPY PUSH1 0x0 DUP2 DUP2 PUSH2 0x20D ADD MSTORE DUP2 DUP2 PUSH2 0x47C ADD MSTORE DUP2 DUP2 PUSH2 0x77B ADD MSTORE DUP2 DUP2 PUSH2 0x96E ADD MSTORE DUP2 DUP2 PUSH2 0xE3B ADD MSTORE DUP2 DUP2 PUSH2 0xF2A ADD MSTORE PUSH2 0xFB6 ADD MSTORE PUSH2 0x184C PUSH1 0x0 RETURN INVALID PUSH1 0x80 PUSH1 0x40 MSTORE CALLVALUE DUP1 ISZERO PUSH2 0x10 JUMPI PUSH1 0x0 DUP1 REVERT JUMPDEST POP PUSH1 0x4 CALLDATASIZE LT PUSH2 0x14D JUMPI PUSH1 0x0 CALLDATALOAD PUSH1 0xE0 SHR DUP1 PUSH4 0x9DDB9EE1 GT PUSH2 0xC3 JUMPI DUP1 PUSH4 0xE6610F69 GT PUSH2 0x7C JUMPI DUP1 PUSH4 0xE6610F69 EQ PUSH2 0x290 JUMPI DUP1 PUSH4 0xEFE7A504 EQ PUSH2 0x298 JUMPI DUP1 PUSH4 0xF2FDE38B EQ PUSH2 0x2A0 JUMPI DUP1 PUSH4 0xF5686444 EQ PUSH2 0x2B3 JUMPI DUP1 PUSH4 0xF6777175 EQ PUSH2 0x2DC JUMPI DUP1 PUSH4 0xFF1582ED EQ PUSH2 0x2EF JUMPI PUSH2 0x14D JUMP JUMPDEST DUP1 PUSH4 0x9DDB9EE1 EQ PUSH2 0x22F JUMPI DUP1 PUSH4 0xAA1CF2A2 EQ PUSH2 0x24F JUMPI DUP1 PUSH4 0xAB3F8703 EQ PUSH2 0x257 JUMPI DUP1 PUSH4 0xB6B55F25 EQ PUSH2 0x26A JUMPI DUP1 PUSH4 0xBA9A061A EQ PUSH2 0x27D JUMPI DUP1 PUSH4 0xBBD50DAB EQ PUSH2 0x288 JUMPI PUSH2 0x14D JUMP JUMPDEST DUP1 PUSH4 0x2E1A7D4D GT PUSH2 0x115 JUMPI DUP1 PUSH4 0x2E1A7D4D EQ PUSH2 0x1AD JUMPI DUP1 PUSH4 0x4E71D92D EQ PUSH2 0x1C0 JUMPI DUP1 PUSH4 0x715018A6 EQ PUSH2 0x1C8 JUMPI DUP1 PUSH4 0x8DA5CB5B EQ PUSH2 0x1D0 JUMPI DUP1 PUSH4 0x929EC537 EQ PUSH2 0x1F5 JUMPI DUP1 PUSH4 0x92F83EA4 EQ PUSH2 0x208 JUMPI PUSH2 0x14D JUMP JUMPDEST DUP1 PUSH4 0x2E3CB0B EQ PUSH2 0x152 JUMPI DUP1 PUSH4 0x9128D75 EQ PUSH2 0x16E JUMPI DUP1 PUSH4 0x1C3CF417 EQ PUSH2 0x178 JUMPI DUP1 PUSH4 0x2037730E EQ PUSH2 0x18B JUMPI DUP1 PUSH4 0x2E0F2625 EQ PUSH2 0x19E JUMPI JUMPDEST PUSH1 0x0 DUP1 REVERT JUMPDEST PUSH2 0x15B PUSH1 0x2 SLOAD DUP2 JUMP JUMPDEST PUSH1 0x40 MLOAD SWAP1 DUP2 MSTORE PUSH1 0x20 ADD JUMPDEST PUSH1 0x40 MLOAD DUP1 SWAP2 SUB SWAP1 RETURN JUMPDEST PUSH2 0x176 PUSH2 0x2F7 JUMP JUMPDEST STOP JUMPDEST PUSH2 0x15B PUSH2 0x186 CALLDATASIZE PUSH1 0x4 PUSH2 0x1632 JUMP JUMPDEST PUSH2 0x4A6 JUMP JUMPDEST PUSH2 0x15B PUSH2 0x199 CALLDATASIZE PUSH1 0x4 PUSH2 0x1618 JUMP JUMPDEST PUSH2 0x50B JUMP JUMPDEST PUSH2 0x15B PUSH8 0xDE0B6B3A7640000 DUP2 JUMP JUMPDEST PUSH2 0x176 PUSH2 0x1BB CALLDATASIZE PUSH1 0x4 PUSH2 0x167B JUMP JUMPDEST PUSH2 0x51E JUMP JUMPDEST PUSH2 0x176 PUSH2 0x6CE JUMP JUMPDEST PUSH2 0x176 PUSH2 0x7E9 JUMP JUMPDEST PUSH1 0x0 SLOAD PUSH1 0x1 PUSH1 0x1 PUSH1 0xA0 SHL SUB AND JUMPDEST PUSH1 0x40 MLOAD PUSH1 0x1 PUSH1 0x1 PUSH1 0xA0 SHL SUB SWAP1 SWAP2 AND DUP2 MSTORE PUSH1 0x20 ADD PUSH2 0x165 JUMP JUMPDEST PUSH2 0x15B PUSH2 0x203 CALLDATASIZE PUSH1 0x4 PUSH2 0x1618 JUMP JUMPDEST PUSH2 0x81F JUMP JUMPDEST PUSH2 0x1DD PUSH32 0x0 DUP2 JUMP JUMPDEST PUSH2 0x15B PUSH2 0x23D CALLDATASIZE PUSH1 0x4 PUSH2 0x1618 JUMP JUMPDEST PUSH1 0x3 PUSH1 0x20 MSTORE PUSH1 0x0 SWAP1 DUP2 MSTORE PUSH1 0x40 SWAP1 KECCAK256 SLOAD DUP2 JUMP JUMPDEST PUSH2 0x15B PUSH2 0x82A JUMP JUMPDEST PUSH2 0x15B PUSH2 0x265 CALLDATASIZE PUSH1 0x4 PUSH2 0x1632 JUMP JUMPDEST PUSH2 0x843 JUMP JUMPDEST PUSH2 0x176 PUSH2 0x278 CALLDATASIZE PUSH1 0x4 PUSH2 0x167B JUMP JUMPDEST PUSH2 0x890 JUMP JUMPDEST PUSH2 0x15B PUSH4 0x61E26F56 DUP2 JUMP JUMPDEST PUSH2 0x176 PUSH2 0xBDC JUMP JUMPDEST PUSH2 0x176 PUSH2 0xD91 JUMP JUMPDEST PUSH2 0x15B PUSH2 0xFDD JUMP JUMPDEST PUSH2 0x176 PUSH2 0x2AE CALLDATASIZE PUSH1 0x4 PUSH2 0x1618 JUMP JUMPDEST PUSH2 0xFED JUMP JUMPDEST PUSH2 0x15B PUSH2 0x2C1 CALLDATASIZE PUSH1 0x4 PUSH2 0x1618 JUMP JUMPDEST PUSH1 0x1 PUSH1 0x1 PUSH1 0xA0 SHL SUB AND PUSH1 0x0 SWAP1 DUP2 MSTORE PUSH1 0x3 PUSH1 0x20 MSTORE PUSH1 0x40 SWAP1 KECCAK256 SLOAD SWAP1 JUMP JUMPDEST PUSH2 0x15B PUSH2 0x2EA CALLDATASIZE PUSH1 0x4 PUSH2 0x1618 JUMP JUMPDEST PUSH2 0x1085 JUMP JUMPDEST PUSH2 0x15B PUSH2 0x1090 JUMP JUMPDEST PUSH1 0x0 SLOAD PUSH1 0x1 PUSH1 0x1 PUSH1 0xA0 SHL SUB AND CALLER EQ PUSH2 0x32A JUMPI PUSH1 0x40 MLOAD PUSH3 0x461BCD PUSH1 0xE5 SHL DUP2 MSTORE PUSH1 0x4 ADD PUSH2 0x321 SWAP1 PUSH2 0x1731 JUMP JUMPDEST PUSH1 0x40 MLOAD DUP1 SWAP2 SUB SWAP1 REVERT JUMPDEST TIMESTAMP PUSH2 0x33B PUSH4 0x61E26F56 PUSH2 0x4B0 PUSH2 0x1766 JUMP JUMPDEST LT PUSH2 0x358 JUMPI PUSH1 0x40 MLOAD PUSH3 0x461BCD PUSH1 0xE5 SHL DUP2 MSTORE PUSH1 0x4 ADD PUSH2 0x321 SWAP1 PUSH2 0x16FA JUMP JUMPDEST PUSH1 0xA PUSH2 0x36D PUSH8 0xDE0B6B3A7640000 PUSH1 0x2 PUSH2 0x179E JUMP JUMPDEST PUSH2 0x377 SWAP2 SWAP1 PUSH2 0x177E JUMP JUMPDEST PUSH1 0x2 SLOAD LT PUSH2 0x3E1 JUMPI PUSH1 0x40 MLOAD PUSH3 0x461BCD PUSH1 0xE5 SHL DUP2 MSTORE PUSH1 0x20 PUSH1 0x4 DUP3 ADD MSTORE PUSH1 0x31 PUSH1 0x24 DUP3 ADD MSTORE PUSH32 0x546F74616C2070726F7669646564206D757374206265206C657373207468616E PUSH1 0x44 DUP3 ADD MSTORE PUSH17 0x81B5A5B9A5B585B081C1C9BDD9A591959 PUSH1 0x7A SHL PUSH1 0x64 DUP3 ADD MSTORE PUSH1 0x84 ADD PUSH2 0x321 JUMP JUMPDEST PUSH1 0x0 PUSH1 0x1 PUSH1 0xA PUSH2 0x3FA PUSH8 0xDE0B6B3A7640000 PUSH1 0x2 PUSH2 0x179E JUMP JUMPDEST PUSH2 0x404 SWAP2 SWAP1 PUSH2 0x177E JUMP JUMPDEST PUSH1 0x2 SLOAD PUSH2 0x41D PUSH8 0xDE0B6B3A7640000 PUSH4 0x131C940 PUSH2 0x179E JUMP JUMPDEST PUSH2 0x427 SWAP2 SWAP1 PUSH2 0x179E JUMP JUMPDEST PUSH2 0x431 SWAP2 SWAP1 PUSH2 0x177E JUMP JUMPDEST PUSH2 0x447 PUSH8 0xDE0B6B3A7640000 PUSH4 0x131C940 PUSH2 0x179E JUMP JUMPDEST PUSH2 0x451 SWAP2 SWAP1 PUSH2 0x17BD JUMP JUMPDEST PUSH2 0x45B SWAP2 SWAP1 PUSH2 0x17BD JUMP JUMPDEST SWAP1 POP PUSH2 0x4A3 PUSH2 0x472 PUSH1 0x0 SLOAD PUSH1 0x1 PUSH1 0x1 PUSH1 0xA0 SHL SUB AND SWAP1 JUMP JUMPDEST PUSH1 0x1 PUSH1 0x1 PUSH1 0xA0 SHL SUB PUSH32 0x0 AND SWAP1 DUP4 PUSH2 0x10F6 JUMP JUMPDEST POP JUMP JUMPDEST PUSH1 0x1 PUSH1 0x1 PUSH1 0xA0 SHL SUB DUP3 AND PUSH1 0x0 SWAP1 DUP2 MSTORE PUSH1 0x3 PUSH1 0x20 MSTORE PUSH1 0x40 DUP2 KECCAK256 SLOAD DUP2 SWAP1 PUSH2 0x4EE SWAP1 PUSH2 0x4D0 SWAP1 DUP6 SWAP1 PUSH2 0x1766 JUMP JUMPDEST PUSH1 0x1 PUSH1 0x1 PUSH1 0xA0 SHL SUB DUP7 AND PUSH1 0x0 SWAP1 DUP2 MSTORE PUSH1 0x4 PUSH1 0x20 MSTORE PUSH1 0x40 SWAP1 KECCAK256 SLOAD PUSH2 0x115E JUMP JUMPDEST SWAP1 POP PUSH2 0x4F9 DUP2 PUSH2 0x1175 JUMP JUMPDEST PUSH2 0x503 SWAP1 DUP3 PUSH2 0x17BD JUMP JUMPDEST SWAP5 SWAP4 POP POP POP POP JUMP JUMPDEST PUSH1 0x0 PUSH2 0x516 DUP3 PUSH2 0x12A3 JUMP JUMPDEST SWAP1 POP JUMPDEST SWAP2 SWAP1 POP JUMP JUMPDEST PUSH4 0x61E26F56 TIMESTAMP GT DUP1 ISZERO PUSH2 0x53F JUMPI POP PUSH2 0x53C PUSH4 0x61E26F56 PUSH2 0x4B0 PUSH2 0x1766 JUMP JUMPDEST TIMESTAMP LT JUMPDEST PUSH2 0x5A2 JUMPI PUSH1 0x40 MLOAD PUSH3 0x461BCD PUSH1 0xE5 SHL DUP2 MSTORE PUSH1 0x20 PUSH1 0x4 DUP3 ADD MSTORE PUSH1 0x2E PUSH1 0x24 DUP3 ADD MSTORE PUSH32 0x4F6E6C7920776974686472617761626C6520647572696E6720746865204F6666 PUSH1 0x44 DUP3 ADD MSTORE PUSH14 0x32B934B73390323AB930BA34B7B7 PUSH1 0x91 SHL PUSH1 0x64 DUP3 ADD MSTORE PUSH1 0x84 ADD PUSH2 0x321 JUMP JUMPDEST CALLER PUSH1 0x0 SWAP1 DUP2 MSTORE PUSH1 0x3 PUSH1 0x20 MSTORE PUSH1 0x40 SWAP1 KECCAK256 SLOAD DUP2 GT ISZERO PUSH2 0x5F8 JUMPI PUSH1 0x40 MLOAD PUSH3 0x461BCD PUSH1 0xE5 SHL DUP2 MSTORE PUSH1 0x20 PUSH1 0x4 DUP3 ADD MSTORE PUSH1 0x14 PUSH1 0x24 DUP3 ADD MSTORE PUSH20 0x496E73756666696369656E742062616C616E6365 PUSH1 0x60 SHL PUSH1 0x44 DUP3 ADD MSTORE PUSH1 0x64 ADD PUSH2 0x321 JUMP JUMPDEST PUSH2 0x601 CALLER PUSH2 0x1305 JUMP JUMPDEST DUP2 GT ISZERO PUSH2 0x641 JUMPI PUSH1 0x40 MLOAD PUSH3 0x461BCD PUSH1 0xE5 SHL DUP2 MSTORE PUSH1 0x20 PUSH1 0x4 DUP3 ADD MSTORE PUSH1 0xE PUSH1 0x24 DUP3 ADD MSTORE PUSH14 0x125B9D985B1A5908185B5BDD5B9D PUSH1 0x92 SHL PUSH1 0x44 DUP3 ADD MSTORE PUSH1 0x64 ADD PUSH2 0x321 JUMP JUMPDEST CALLER PUSH1 0x0 SWAP1 DUP2 MSTORE PUSH1 0x3 PUSH1 0x20 MSTORE PUSH1 0x40 DUP2 KECCAK256 DUP1 SLOAD DUP4 SWAP3 SWAP1 PUSH2 0x660 SWAP1 DUP5 SWAP1 PUSH2 0x17BD JUMP JUMPDEST SWAP3 POP POP DUP2 SWAP1 SSTORE POP DUP1 PUSH1 0x2 PUSH1 0x0 DUP3 DUP3 SLOAD PUSH2 0x679 SWAP2 SWAP1 PUSH2 0x17BD JUMP JUMPDEST SWAP1 SWAP2 SSTORE POP POP PUSH1 0x1 SLOAD PUSH2 0x695 SWAP1 PUSH1 0x1 PUSH1 0x1 PUSH1 0xA0 SHL SUB AND CALLER DUP4 PUSH2 0x10F6 JUMP JUMPDEST PUSH1 0x40 MLOAD DUP2 DUP2 MSTORE CALLER SWAP1 PUSH32 0x884EDAD9CE6FA2440D8A54CC123490EB96D2768479D49FF9C7366125A9424364 SWAP1 PUSH1 0x20 ADD JUMPDEST PUSH1 0x40 MLOAD DUP1 SWAP2 SUB SWAP1 LOG2 POP JUMP JUMPDEST PUSH2 0x6DE PUSH4 0x61E26F56 PUSH2 0x4B0 PUSH2 0x1766 JUMP JUMPDEST TIMESTAMP GT PUSH2 0x6FC JUMPI PUSH1 0x40 MLOAD PUSH3 0x461BCD PUSH1 0xE5 SHL DUP2 MSTORE PUSH1 0x4 ADD PUSH2 0x321 SWAP1 PUSH2 0x16FA JUMP JUMPDEST CALLER PUSH1 0x0 SWAP1 DUP2 MSTORE PUSH1 0x3 PUSH1 0x20 MSTORE PUSH1 0x40 SWAP1 KECCAK256 SLOAD PUSH2 0x748 JUMPI PUSH1 0x40 MLOAD PUSH3 0x461BCD PUSH1 0xE5 SHL DUP2 MSTORE PUSH1 0x20 PUSH1 0x4 DUP3 ADD MSTORE PUSH1 0xD PUSH1 0x24 DUP3 ADD MSTORE PUSH13 0x456D7074792062616C616E6365 PUSH1 0x98 SHL PUSH1 0x44 DUP3 ADD MSTORE PUSH1 0x64 ADD PUSH2 0x321 JUMP JUMPDEST CALLER PUSH1 0x0 DUP2 DUP2 MSTORE PUSH1 0x3 PUSH1 0x20 MSTORE PUSH1 0x40 DUP2 KECCAK256 SLOAD SWAP2 PUSH2 0x762 SWAP1 PUSH2 0x12A3 JUMP JUMPDEST CALLER PUSH1 0x0 DUP2 DUP2 MSTORE PUSH1 0x3 PUSH1 0x20 MSTORE PUSH1 0x40 DUP2 KECCAK256 SSTORE SWAP1 SWAP2 POP PUSH2 0x7AA SWAP1 PUSH32 0x0 PUSH1 0x1 PUSH1 0x1 PUSH1 0xA0 SHL SUB AND SWAP1 DUP4 PUSH2 0x10F6 JUMP JUMPDEST PUSH1 0x40 DUP1 MLOAD DUP4 DUP2 MSTORE PUSH1 0x20 DUP2 ADD DUP4 SWAP1 MSTORE CALLER SWAP2 PUSH32 0x34FCBAC0073D7C3D388E51312FAF357774904998EEB8FCA628B9E6F65EE1CBF7 SWAP2 ADD PUSH1 0x40 MLOAD DUP1 SWAP2 SUB SWAP1 LOG2 POP POP JUMP JUMPDEST PUSH1 0x0 SLOAD PUSH1 0x1 PUSH1 0x1 PUSH1 0xA0 SHL SUB AND CALLER EQ PUSH2 0x813 JUMPI PUSH1 0x40 MLOAD PUSH3 0x461BCD PUSH1 0xE5 SHL DUP2 MSTORE PUSH1 0x4 ADD PUSH2 0x321 SWAP1 PUSH2 0x1731 JUMP JUMPDEST PUSH2 0x81D PUSH1 0x0 PUSH2 0x135B JUMP JUMPDEST JUMP JUMPDEST PUSH1 0x0 PUSH2 0x516 DUP3 PUSH2 0x13AB JUMP JUMPDEST PUSH2 0x840 PUSH8 0xDE0B6B3A7640000 PUSH4 0x131C940 PUSH2 0x179E JUMP JUMPDEST DUP2 JUMP JUMPDEST PUSH1 0x1 PUSH1 0x1 PUSH1 0xA0 SHL SUB DUP3 AND PUSH1 0x0 SWAP1 DUP2 MSTORE PUSH1 0x3 PUSH1 0x20 MSTORE PUSH1 0x40 DUP2 KECCAK256 SLOAD PUSH2 0x889 SWAP1 PUSH2 0x86B SWAP1 DUP5 SWAP1 PUSH2 0x1766 JUMP JUMPDEST PUSH1 0x1 PUSH1 0x1 PUSH1 0xA0 SHL SUB DUP6 AND PUSH1 0x0 SWAP1 DUP2 MSTORE PUSH1 0x4 PUSH1 0x20 MSTORE PUSH1 0x40 SWAP1 KECCAK256 SLOAD PUSH2 0x115E JUMP JUMPDEST SWAP4 SWAP3 POP POP POP JUMP JUMPDEST TIMESTAMP PUSH4 0x61E26F56 GT ISZERO PUSH2 0x8E4 JUMPI PUSH1 0x40 MLOAD PUSH3 0x461BCD PUSH1 0xE5 SHL DUP2 MSTORE PUSH1 0x20 PUSH1 0x4 DUP3 ADD DUP2 SWAP1 MSTORE PUSH1 0x24 DUP3 ADD MSTORE PUSH32 0x546865206F66666572696E6720686173206E6F74207374617274656420796574 PUSH1 0x44 DUP3 ADD MSTORE PUSH1 0x64 ADD PUSH2 0x321 JUMP JUMPDEST PUSH2 0x8F4 PUSH4 0x61E26F56 PUSH2 0x4B0 PUSH2 0x1766 JUMP JUMPDEST TIMESTAMP GT ISZERO PUSH2 0x943 JUMPI PUSH1 0x40 MLOAD PUSH3 0x461BCD PUSH1 0xE5 SHL DUP2 MSTORE PUSH1 0x20 PUSH1 0x4 DUP3 ADD MSTORE PUSH1 0x1E PUSH1 0x24 DUP3 ADD MSTORE PUSH32 0x546865206F66666572696E672068617320616C726561647920656E6465640000 PUSH1 0x44 DUP3 ADD MSTORE PUSH1 0x64 ADD PUSH2 0x321 JUMP JUMPDEST PUSH2 0x959 PUSH8 0xDE0B6B3A7640000 PUSH4 0x131C940 PUSH2 0x179E JUMP JUMPDEST PUSH1 0x40 MLOAD PUSH4 0x70A08231 PUSH1 0xE0 SHL DUP2 MSTORE ADDRESS PUSH1 0x4 DUP3 ADD MSTORE PUSH32 0x0 PUSH1 0x1 PUSH1 0x1 PUSH1 0xA0 SHL SUB AND SWAP1 PUSH4 0x70A08231 SWAP1 PUSH1 0x24 ADD PUSH1 0x20 PUSH1 0x40 MLOAD DUP1 DUP4 SUB DUP2 DUP7 DUP1 EXTCODESIZE ISZERO DUP1 ISZERO PUSH2 0x9B8 JUMPI PUSH1 0x0 DUP1 REVERT JUMPDEST POP GAS STATICCALL ISZERO DUP1 ISZERO PUSH2 0x9CC JUMPI RETURNDATASIZE PUSH1 0x0 DUP1 RETURNDATACOPY RETURNDATASIZE PUSH1 0x0 REVERT JUMPDEST POP POP POP POP PUSH1 0x40 MLOAD RETURNDATASIZE PUSH1 0x1F NOT PUSH1 0x1F DUP3 ADD AND DUP3 ADD DUP1 PUSH1 0x40 MSTORE POP DUP2 ADD SWAP1 PUSH2 0x9F0 SWAP2 SWAP1 PUSH2 0x1693 JUMP JUMPDEST EQ PUSH2 0xA4E JUMPI PUSH1 0x40 MLOAD PUSH3 0x461BCD PUSH1 0xE5 SHL DUP2 MSTORE PUSH1 0x20 PUSH1 0x4 DUP3 ADD MSTORE PUSH1 0x28 PUSH1 0x24 DUP3 ADD MSTORE PUSH32 0x496E73756666696369656E742044454649484F52534520746F6B656E20696E20 PUSH1 0x44 DUP3 ADD MSTORE PUSH8 0x18DBDB9D1C9858DD PUSH1 0xC2 SHL PUSH1 0x64 DUP3 ADD MSTORE PUSH1 0x84 ADD PUSH2 0x321 JUMP JUMPDEST PUSH1 0x1 SLOAD PUSH1 0x40 MLOAD PUSH4 0x6EB1769F PUSH1 0xE1 SHL DUP2 MSTORE CALLER PUSH1 0x4 DUP3 ADD MSTORE ADDRESS PUSH1 0x24 DUP3 ADD MSTORE DUP3 SWAP2 PUSH1 0x1 PUSH1 0x1 PUSH1 0xA0 SHL SUB AND SWAP1 PUSH4 0xDD62ED3E SWAP1 PUSH1 0x44 ADD PUSH1 0x20 PUSH1 0x40 MLOAD DUP1 DUP4 SUB DUP2 DUP7 DUP1 EXTCODESIZE ISZERO DUP1 ISZERO PUSH2 0xA97 JUMPI PUSH1 0x0 DUP1 REVERT JUMPDEST POP GAS STATICCALL ISZERO DUP1 ISZERO PUSH2 0xAAB JUMPI RETURNDATASIZE PUSH1 0x0 DUP1 RETURNDATACOPY RETURNDATASIZE PUSH1 0x0 REVERT JUMPDEST POP POP POP POP PUSH1 0x40 MLOAD RETURNDATASIZE PUSH1 0x1F NOT PUSH1 0x1F DUP3 ADD AND DUP3 ADD DUP1 PUSH1 0x40 MSTORE POP DUP2 ADD SWAP1 PUSH2 0xACF SWAP2 SWAP1 PUSH2 0x1693 JUMP JUMPDEST LT ISZERO PUSH2 0xB1D JUMPI PUSH1 0x40 MLOAD PUSH3 0x461BCD PUSH1 0xE5 SHL DUP2 MSTORE PUSH1 0x20 PUSH1 0x4 DUP3 ADD MSTORE PUSH1 0x19 PUSH1 0x24 DUP3 ADD MSTORE PUSH32 0x43616C6C6572206D75737420617070726F766520666972737400000000000000 PUSH1 0x44 DUP3 ADD MSTORE PUSH1 0x64 ADD PUSH2 0x321 JUMP JUMPDEST PUSH1 0x1 SLOAD PUSH2 0xB35 SWAP1 PUSH1 0x1 PUSH1 0x1 PUSH1 0xA0 SHL SUB AND CALLER ADDRESS DUP5 PUSH2 0x13D7 JUMP JUMPDEST DUP1 PUSH1 0x2 PUSH1 0x0 DUP3 DUP3 SLOAD PUSH2 0xB47 SWAP2 SWAP1 PUSH2 0x1766 JUMP JUMPDEST SWAP1 SWAP2 SSTORE POP POP CALLER PUSH1 0x0 SWAP1 DUP2 MSTORE PUSH1 0x3 PUSH1 0x20 MSTORE PUSH1 0x40 DUP2 KECCAK256 DUP1 SLOAD DUP4 SWAP3 SWAP1 PUSH2 0xB6B SWAP1 DUP5 SWAP1 PUSH2 0x1766 JUMP JUMPDEST SWAP1 SWAP2 SSTORE POP POP CALLER PUSH1 0x0 SWAP1 DUP2 MSTORE PUSH1 0x4 PUSH1 0x20 SWAP1 DUP2 MSTORE PUSH1 0x40 DUP1 DUP4 KECCAK256 SLOAD PUSH1 0x3 SWAP1 SWAP3 MSTORE SWAP1 SWAP2 KECCAK256 SLOAD PUSH2 0xB96 SWAP2 SWAP1 PUSH2 0x115E JUMP JUMPDEST CALLER PUSH1 0x0 DUP2 DUP2 MSTORE PUSH1 0x4 PUSH1 0x20 MSTORE PUSH1 0x40 SWAP1 DUP2 SWAP1 KECCAK256 SWAP3 SWAP1 SWAP3 SSTORE SWAP1 MLOAD PUSH32 0xE1FFFCC4923D04B559F4D29A8BFC6CDA04EB5B0D3C460751C2402C5C5CC9109C SWAP1 PUSH2 0x6C3 SWAP1 DUP5 DUP2 MSTORE PUSH1 0x20 ADD SWAP1 JUMP JUMPDEST PUSH1 0x0 SLOAD PUSH1 0x1 PUSH1 0x1 PUSH1 0xA0 SHL SUB AND CALLER EQ PUSH2 0xC06 JUMPI PUSH1 0x40 MLOAD PUSH3 0x461BCD PUSH1 0xE5 SHL DUP2 MSTORE PUSH1 0x4 ADD PUSH2 0x321 SWAP1 PUSH2 0x1731 JUMP JUMPDEST TIMESTAMP PUSH2 0xC17 PUSH4 0x61E26F56 PUSH2 0x4B0 PUSH2 0x1766 JUMP JUMPDEST LT PUSH2 0xC34 JUMPI PUSH1 0x40 MLOAD PUSH3 0x461BCD PUSH1 0xE5 SHL DUP2 MSTORE PUSH1 0x4 ADD PUSH2 0x321 SWAP1 PUSH2 0x16FA JUMP JUMPDEST PUSH1 0x1 SLOAD PUSH1 0x40 MLOAD PUSH4 0x70A08231 PUSH1 0xE0 SHL DUP2 MSTORE ADDRESS PUSH1 0x4 DUP3 ADD MSTORE PUSH1 0x0 SWAP2 PUSH1 0x1 PUSH1 0x1 PUSH1 0xA0 SHL SUB AND SWAP1 PUSH4 0x70A08231 SWAP1 PUSH1 0x24 ADD PUSH1 0x20 PUSH1 0x40 MLOAD DUP1 DUP4 SUB DUP2 DUP7 DUP1 EXTCODESIZE ISZERO DUP1 ISZERO PUSH2 0xC78 JUMPI PUSH1 0x0 DUP1 REVERT JUMPDEST POP GAS STATICCALL ISZERO DUP1 ISZERO PUSH2 0xC8C JUMPI RETURNDATASIZE PUSH1 0x0 DUP1 RETURNDATACOPY RETURNDATASIZE PUSH1 0x0 REVERT JUMPDEST POP POP POP POP PUSH1 0x40 MLOAD RETURNDATASIZE PUSH1 0x1F NOT PUSH1 0x1F DUP3 ADD AND DUP3 ADD DUP1 PUSH1 0x40 MSTORE POP DUP2 ADD SWAP1 PUSH2 0xCB0 SWAP2 SWAP1 PUSH2 0x1693 JUMP JUMPDEST GT PUSH2 0xCFD JUMPI PUSH1 0x40 MLOAD PUSH3 0x461BCD PUSH1 0xE5 SHL DUP2 MSTORE PUSH1 0x20 PUSH1 0x4 DUP3 ADD DUP2 SWAP1 MSTORE PUSH1 0x24 DUP3 ADD MSTORE PUSH32 0x42616C616E6365206F662074686520636F6E747261637420697320656D707479 PUSH1 0x44 DUP3 ADD MSTORE PUSH1 0x64 ADD PUSH2 0x321 JUMP JUMPDEST PUSH1 0x1 SLOAD PUSH1 0x40 MLOAD PUSH4 0x70A08231 PUSH1 0xE0 SHL DUP2 MSTORE ADDRESS PUSH1 0x4 DUP3 ADD MSTORE PUSH2 0x81D SWAP2 CALLER SWAP2 PUSH1 0x1 PUSH1 0x1 PUSH1 0xA0 SHL SUB SWAP1 SWAP2 AND SWAP1 PUSH4 0x70A08231 SWAP1 PUSH1 0x24 ADD PUSH1 0x20 PUSH1 0x40 MLOAD DUP1 DUP4 SUB DUP2 DUP7 DUP1 EXTCODESIZE ISZERO DUP1 ISZERO PUSH2 0xD46 JUMPI PUSH1 0x0 DUP1 REVERT JUMPDEST POP GAS STATICCALL ISZERO DUP1 ISZERO PUSH2 0xD5A JUMPI RETURNDATASIZE PUSH1 0x0 DUP1 RETURNDATACOPY RETURNDATASIZE PUSH1 0x0 REVERT JUMPDEST POP POP POP POP PUSH1 0x40 MLOAD RETURNDATASIZE PUSH1 0x1F NOT PUSH1 0x1F DUP3 ADD AND DUP3 ADD DUP1 PUSH1 0x40 MSTORE POP DUP2 ADD SWAP1 PUSH2 0xD7E SWAP2 SWAP1 PUSH2 0x1693 JUMP JUMPDEST PUSH1 0x1 SLOAD PUSH1 0x1 PUSH1 0x1 PUSH1 0xA0 SHL SUB AND SWAP2 SWAP1 PUSH2 0x10F6 JUMP JUMPDEST PUSH1 0x0 SLOAD PUSH1 0x1 PUSH1 0x1 PUSH1 0xA0 SHL SUB AND CALLER EQ PUSH2 0xDBB JUMPI PUSH1 0x40 MLOAD PUSH3 0x461BCD PUSH1 0xE5 SHL DUP2 MSTORE PUSH1 0x4 ADD PUSH2 0x321 SWAP1 PUSH2 0x1731 JUMP JUMPDEST TIMESTAMP PUSH2 0xDCC PUSH4 0x61E26F56 PUSH2 0x4B0 PUSH2 0x1766 JUMP JUMPDEST PUSH2 0xDD9 SWAP1 PUSH3 0x278D00 PUSH2 0x1766 JUMP JUMPDEST LT PUSH2 0xE26 JUMPI PUSH1 0x40 MLOAD PUSH3 0x461BCD PUSH1 0xE5 SHL DUP2 MSTORE PUSH1 0x20 PUSH1 0x4 DUP3 ADD MSTORE PUSH1 0x19 PUSH1 0x24 DUP3 ADD MSTORE PUSH32 0x5769746864726177616C20697320756E617661696C61626C6500000000000000 PUSH1 0x44 DUP3 ADD MSTORE PUSH1 0x64 ADD PUSH2 0x321 JUMP JUMPDEST PUSH1 0x40 MLOAD PUSH4 0x70A08231 PUSH1 0xE0 SHL DUP2 MSTORE ADDRESS PUSH1 0x4 DUP3 ADD MSTORE PUSH32 0x0 PUSH1 0x1 PUSH1 0x1 PUSH1 0xA0 SHL SUB AND SWAP1 PUSH4 0x70A08231 SWAP1 PUSH1 0x24 ADD PUSH1 0x20 PUSH1 0x40 MLOAD DUP1 DUP4 SUB DUP2 DUP7 DUP1 EXTCODESIZE ISZERO DUP1 ISZERO PUSH2 0xE85 JUMPI PUSH1 0x0 DUP1 REVERT JUMPDEST POP GAS STATICCALL ISZERO DUP1 ISZERO PUSH2 0xE99 JUMPI RETURNDATASIZE PUSH1 0x0 DUP1 RETURNDATACOPY RETURNDATASIZE PUSH1 0x0 REVERT JUMPDEST POP POP POP POP PUSH1 0x40 MLOAD RETURNDATASIZE PUSH1 0x1F NOT PUSH1 0x1F DUP3 ADD AND DUP3 ADD DUP1 PUSH1 0x40 MSTORE POP DUP2 ADD SWAP1 PUSH2 0xEBD SWAP2 SWAP1 PUSH2 0x1693 JUMP JUMPDEST PUSH2 0xF00 JUMPI PUSH1 0x40 MLOAD PUSH3 0x461BCD PUSH1 0xE5 SHL DUP2 MSTORE PUSH1 0x20 PUSH1 0x4 DUP3 ADD MSTORE PUSH1 0x14 PUSH1 0x24 DUP3 ADD MSTORE PUSH20 0x4E6F20746F6B656E20746F207769746864726177 PUSH1 0x60 SHL PUSH1 0x44 DUP3 ADD MSTORE PUSH1 0x64 ADD PUSH2 0x321 JUMP JUMPDEST PUSH2 0x81D PUSH2 0xF15 PUSH1 0x0 SLOAD PUSH1 0x1 PUSH1 0x1 PUSH1 0xA0 SHL SUB AND SWAP1 JUMP JUMPDEST PUSH1 0x40 MLOAD PUSH4 0x70A08231 PUSH1 0xE0 SHL DUP2 MSTORE ADDRESS PUSH1 0x4 DUP3 ADD MSTORE PUSH32 0x0 PUSH1 0x1 PUSH1 0x1 PUSH1 0xA0 SHL SUB AND SWAP1 PUSH4 0x70A08231 SWAP1 PUSH1 0x24 ADD PUSH1 0x20 PUSH1 0x40 MLOAD DUP1 DUP4 SUB DUP2 DUP7 DUP1 EXTCODESIZE ISZERO DUP1 ISZERO PUSH2 0xF74 JUMPI PUSH1 0x0 DUP1 REVERT JUMPDEST POP GAS STATICCALL ISZERO DUP1 ISZERO PUSH2 0xF88 JUMPI RETURNDATASIZE PUSH1 0x0 DUP1 RETURNDATACOPY RETURNDATASIZE PUSH1 0x0 REVERT JUMPDEST POP POP POP POP PUSH1 0x40 MLOAD RETURNDATASIZE PUSH1 0x1F NOT PUSH1 0x1F DUP3 ADD AND DUP3 ADD DUP1 PUSH1 0x40 MSTORE POP DUP2 ADD SWAP1 PUSH2 0xFAC SWAP2 SWAP1 PUSH2 0x1693 JUMP JUMPDEST PUSH1 0x1 PUSH1 0x1 PUSH1 0xA0 SHL SUB PUSH32 0x0 AND SWAP2 SWAP1 PUSH2 0x10F6 JUMP JUMPDEST PUSH2 0x840 PUSH4 0x61E26F56 PUSH2 0x4B0 PUSH2 0x1766 JUMP JUMPDEST PUSH1 0x0 SLOAD PUSH1 0x1 PUSH1 0x1 PUSH1 0xA0 SHL SUB AND CALLER EQ PUSH2 0x1017 JUMPI PUSH1 0x40 MLOAD PUSH3 0x461BCD PUSH1 0xE5 SHL DUP2 MSTORE PUSH1 0x4 ADD PUSH2 0x321 SWAP1 PUSH2 0x1731 JUMP JUMPDEST PUSH1 0x1 PUSH1 0x1 PUSH1 0xA0 SHL SUB DUP2 AND PUSH2 0x107C JUMPI PUSH1 0x40 MLOAD PUSH3 0x461BCD PUSH1 0xE5 SHL DUP2 MSTORE PUSH1 0x20 PUSH1 0x4 DUP3 ADD MSTORE PUSH1 0x26 PUSH1 0x24 DUP3 ADD MSTORE PUSH32 0x4F776E61626C653A206E6577206F776E657220697320746865207A65726F2061 PUSH1 0x44 DUP3 ADD MSTORE PUSH6 0x646472657373 PUSH1 0xD0 SHL PUSH1 0x64 DUP3 ADD MSTORE PUSH1 0x84 ADD PUSH2 0x321 JUMP JUMPDEST PUSH2 0x4A3 DUP2 PUSH2 0x135B JUMP JUMPDEST PUSH1 0x0 PUSH2 0x516 DUP3 PUSH2 0x1305 JUMP JUMPDEST PUSH1 0x0 PUSH2 0x10A8 PUSH8 0xDE0B6B3A7640000 PUSH4 0x131C940 PUSH2 0x179E JUMP JUMPDEST PUSH8 0xDE0B6B3A7640000 PUSH2 0x10DD PUSH1 0x2 SLOAD PUSH1 0xA PUSH8 0xDE0B6B3A7640000 PUSH1 0x2 PUSH2 0x10CE SWAP2 SWAP1 PUSH2 0x179E JUMP JUMPDEST PUSH2 0x10D8 SWAP2 SWAP1 PUSH2 0x177E JUMP JUMPDEST PUSH2 0x115E JUMP JUMPDEST PUSH2 0x10E7 SWAP2 SWAP1 PUSH2 0x179E JUMP JUMPDEST PUSH2 0x10F1 SWAP2 SWAP1 PUSH2 0x177E JUMP JUMPDEST SWAP1 POP SWAP1 JUMP JUMPDEST PUSH1 0x40 MLOAD PUSH1 0x1 PUSH1 0x1 PUSH1 0xA0 SHL SUB DUP4 AND PUSH1 0x24 DUP3 ADD MSTORE PUSH1 0x44 DUP2 ADD DUP3 SWAP1 MSTORE PUSH2 0x1159 SWAP1 DUP5 SWAP1 PUSH4 0xA9059CBB PUSH1 0xE0 SHL SWAP1 PUSH1 0x64 ADD JUMPDEST PUSH1 0x40 DUP1 MLOAD PUSH1 0x1F NOT DUP2 DUP5 SUB ADD DUP2 MSTORE SWAP2 SWAP1 MSTORE PUSH1 0x20 DUP2 ADD DUP1 MLOAD PUSH1 0x1 PUSH1 0x1 PUSH1 0xE0 SHL SUB AND PUSH1 0x1 PUSH1 0x1 PUSH1 0xE0 SHL SUB NOT SWAP1 SWAP4 AND SWAP3 SWAP1 SWAP3 OR SWAP1 SWAP2 MSTORE PUSH2 0x1415 JUMP JUMPDEST POP POP POP JUMP JUMPDEST PUSH1 0x0 DUP2 DUP4 LT ISZERO PUSH2 0x116E JUMPI DUP2 PUSH2 0x889 JUMP JUMPDEST POP SWAP1 SWAP2 SWAP1 POP JUMP JUMPDEST PUSH1 0x0 PUSH1 0xA PUSH2 0x118D PUSH8 0xDE0B6B3A7640000 PUSH2 0x7D0 PUSH2 0x179E JUMP JUMPDEST PUSH2 0x1197 SWAP2 SWAP1 PUSH2 0x177E JUMP JUMPDEST DUP3 GT PUSH2 0x11BB JUMPI PUSH1 0x64 PUSH2 0x11AA DUP4 PUSH1 0x46 PUSH2 0x179E JUMP JUMPDEST PUSH2 0x11B4 SWAP2 SWAP1 PUSH2 0x177E JUMP JUMPDEST SWAP1 POP PUSH2 0x519 JUMP JUMPDEST PUSH2 0x11D0 PUSH8 0xDE0B6B3A7640000 PUSH3 0x30D40 PUSH2 0x179E JUMP JUMPDEST DUP3 GT PUSH2 0x127A JUMPI PUSH1 0x0 PUSH2 0x11EA PUSH8 0xDE0B6B3A7640000 DUP5 PUSH2 0x177E JUMP JUMPDEST SWAP1 POP PUSH1 0x0 PUSH4 0x3B9ACA00 PUSH2 0x11FD DUP4 DUP1 PUSH2 0x179E JUMP JUMPDEST PUSH2 0x1209 SWAP1 PUSH2 0x6AD PUSH2 0x179E JUMP JUMPDEST PUSH2 0x1213 SWAP2 SWAP1 PUSH2 0x177E JUMP JUMPDEST SWAP1 POP PUSH1 0x0 PUSH1 0x64 PUSH2 0x1224 DUP5 PUSH1 0x44 PUSH2 0x179E JUMP JUMPDEST PUSH2 0x122E SWAP2 SWAP1 PUSH2 0x177E JUMP JUMPDEST SWAP1 POP PUSH1 0x0 PUSH2 0x3E8 DUP3 PUSH2 0x1243 DUP6 PUSH3 0x116C0 PUSH2 0x1766 JUMP JUMPDEST PUSH2 0x124D SWAP2 SWAP1 PUSH2 0x17BD JUMP JUMPDEST PUSH2 0x1257 SWAP2 SWAP1 PUSH2 0x177E JUMP JUMPDEST SWAP1 POP PUSH1 0x64 PUSH2 0x1265 DUP3 DUP9 PUSH2 0x179E JUMP JUMPDEST PUSH2 0x126F SWAP2 SWAP1 PUSH2 0x177E JUMP JUMPDEST SWAP5 POP POP POP POP POP PUSH2 0x519 JUMP JUMPDEST PUSH2 0x128F PUSH8 0xDE0B6B3A7640000 PUSH3 0x30D40 PUSH2 0x179E JUMP JUMPDEST DUP3 GT ISZERO PUSH2 0x519 JUMPI PUSH1 0x64 PUSH2 0x11AA DUP4 PUSH1 0x3 PUSH2 0x179E JUMP JUMPDEST PUSH1 0x1 PUSH1 0x1 PUSH1 0xA0 SHL SUB DUP2 AND PUSH1 0x0 SWAP1 DUP2 MSTORE PUSH1 0x3 PUSH1 0x20 MSTORE PUSH1 0x40 DUP2 KECCAK256 SLOAD PUSH1 0x2 DUP1 SLOAD PUSH2 0x12DA SWAP2 PUSH1 0xA SWAP1 PUSH2 0x10CE SWAP1 PUSH8 0xDE0B6B3A7640000 SWAP1 PUSH2 0x179E JUMP JUMPDEST DUP2 PUSH2 0x12F1 PUSH8 0xDE0B6B3A7640000 PUSH4 0x131C940 PUSH2 0x179E JUMP JUMPDEST PUSH2 0x12FB SWAP2 SWAP1 PUSH2 0x179E JUMP JUMPDEST PUSH2 0x889 SWAP2 SWAP1 PUSH2 0x177E JUMP JUMPDEST PUSH1 0x1 PUSH1 0x1 PUSH1 0xA0 SHL SUB DUP2 AND PUSH1 0x0 SWAP1 DUP2 MSTORE PUSH1 0x4 PUSH1 0x20 MSTORE PUSH1 0x40 DUP2 KECCAK256 SLOAD PUSH2 0x889 PUSH2 0x132A DUP3 PUSH2 0x1175 JUMP JUMPDEST PUSH2 0x1333 DUP6 PUSH2 0x13AB JUMP JUMPDEST PUSH1 0x1 PUSH1 0x1 PUSH1 0xA0 SHL SUB DUP7 AND PUSH1 0x0 SWAP1 DUP2 MSTORE PUSH1 0x3 PUSH1 0x20 MSTORE PUSH1 0x40 SWAP1 KECCAK256 SLOAD PUSH2 0x1356 SWAP2 SWAP1 PUSH2 0x17BD JUMP JUMPDEST PUSH2 0x14E7 JUMP JUMPDEST PUSH1 0x0 DUP1 SLOAD PUSH1 0x1 PUSH1 0x1 PUSH1 0xA0 SHL SUB DUP4 DUP2 AND PUSH1 0x1 PUSH1 0x1 PUSH1 0xA0 SHL SUB NOT DUP4 AND DUP2 OR DUP5 SSTORE PUSH1 0x40 MLOAD SWAP2 SWAP1 SWAP3 AND SWAP3 DUP4 SWAP2 PUSH32 0x8BE0079C531659141344CD1FD0A4F28419497F9722A3DAAFE3B4186F6B6457E0 SWAP2 SWAP1 LOG3 POP POP JUMP JUMPDEST PUSH1 0x1 PUSH1 0x1 PUSH1 0xA0 SHL SUB DUP2 AND PUSH1 0x0 SWAP1 DUP2 MSTORE PUSH1 0x4 PUSH1 0x20 MSTORE PUSH1 0x40 DUP2 KECCAK256 SLOAD PUSH2 0x13CD DUP2 PUSH2 0x1175 JUMP JUMPDEST PUSH2 0x889 SWAP1 DUP3 PUSH2 0x17BD JUMP JUMPDEST PUSH1 0x40 MLOAD PUSH1 0x1 PUSH1 0x1 PUSH1 0xA0 SHL SUB DUP1 DUP6 AND PUSH1 0x24 DUP4 ADD MSTORE DUP4 AND PUSH1 0x44 DUP3 ADD MSTORE PUSH1 0x64 DUP2 ADD DUP3 SWAP1 MSTORE PUSH2 0x140F SWAP1 DUP6 SWAP1 PUSH4 0x23B872DD PUSH1 0xE0 SHL SWAP1 PUSH1 0x84 ADD PUSH2 0x1122 JUMP JUMPDEST POP POP POP POP JUMP JUMPDEST PUSH1 0x0 PUSH2 0x146A DUP3 PUSH1 0x40 MLOAD DUP1 PUSH1 0x40 ADD PUSH1 0x40 MSTORE DUP1 PUSH1 0x20 DUP2 MSTORE PUSH1 0x20 ADD PUSH32 0x5361666545524332303A206C6F772D6C6576656C2063616C6C206661696C6564 DUP2 MSTORE POP DUP6 PUSH1 0x1 PUSH1 0x1 PUSH1 0xA0 SHL SUB AND PUSH2 0x14F6 SWAP1 SWAP3 SWAP2 SWAP1 PUSH4 0xFFFFFFFF AND JUMP JUMPDEST DUP1 MLOAD SWAP1 SWAP2 POP ISZERO PUSH2 0x1159 JUMPI DUP1 DUP1 PUSH1 0x20 ADD SWAP1 MLOAD DUP2 ADD SWAP1 PUSH2 0x1488 SWAP2 SWAP1 PUSH2 0x165B JUMP JUMPDEST PUSH2 0x1159 JUMPI PUSH1 0x40 MLOAD PUSH3 0x461BCD PUSH1 0xE5 SHL DUP2 MSTORE PUSH1 0x20 PUSH1 0x4 DUP3 ADD MSTORE PUSH1 0x2A PUSH1 0x24 DUP3 ADD MSTORE PUSH32 0x5361666545524332303A204552433230206F7065726174696F6E20646964206E PUSH1 0x44 DUP3 ADD MSTORE PUSH10 0x1BDD081CDD58D8D95959 PUSH1 0xB2 SHL PUSH1 0x64 DUP3 ADD MSTORE PUSH1 0x84 ADD PUSH2 0x321 JUMP JUMPDEST PUSH1 0x0 DUP2 DUP4 LT PUSH2 0x116E JUMPI DUP2 PUSH2 0x889 JUMP JUMPDEST PUSH1 0x60 PUSH2 0x503 DUP5 DUP5 PUSH1 0x0 DUP6 DUP6 DUP5 EXTCODESIZE PUSH2 0x154F JUMPI PUSH1 0x40 MLOAD PUSH3 0x461BCD PUSH1 0xE5 SHL DUP2 MSTORE PUSH1 0x20 PUSH1 0x4 DUP3 ADD MSTORE PUSH1 0x1D PUSH1 0x24 DUP3 ADD MSTORE PUSH32 0x416464726573733A2063616C6C20746F206E6F6E2D636F6E7472616374000000 PUSH1 0x44 DUP3 ADD MSTORE PUSH1 0x64 ADD PUSH2 0x321 JUMP JUMPDEST PUSH1 0x0 DUP1 DUP7 PUSH1 0x1 PUSH1 0x1 PUSH1 0xA0 SHL SUB AND DUP6 DUP8 PUSH1 0x40 MLOAD PUSH2 0x156B SWAP2 SWAP1 PUSH2 0x16AB JUMP JUMPDEST PUSH1 0x0 PUSH1 0x40 MLOAD DUP1 DUP4 SUB DUP2 DUP6 DUP8 GAS CALL SWAP3 POP POP POP RETURNDATASIZE DUP1 PUSH1 0x0 DUP2 EQ PUSH2 0x15A8 JUMPI PUSH1 0x40 MLOAD SWAP2 POP PUSH1 0x1F NOT PUSH1 0x3F RETURNDATASIZE ADD AND DUP3 ADD PUSH1 0x40 MSTORE RETURNDATASIZE DUP3 MSTORE RETURNDATASIZE PUSH1 0x0 PUSH1 0x20 DUP5 ADD RETURNDATACOPY PUSH2 0x15AD JUMP JUMPDEST PUSH1 0x60 SWAP2 POP JUMPDEST POP SWAP2 POP SWAP2 POP PUSH2 0x15BD DUP3 DUP3 DUP7 PUSH2 0x15C8 JUMP JUMPDEST SWAP8 SWAP7 POP POP POP POP POP POP POP JUMP JUMPDEST PUSH1 0x60 DUP4 ISZERO PUSH2 0x15D7 JUMPI POP DUP2 PUSH2 0x889 JUMP JUMPDEST DUP3 MLOAD ISZERO PUSH2 0x15E7 JUMPI DUP3 MLOAD DUP1 DUP5 PUSH1 0x20 ADD REVERT JUMPDEST DUP2 PUSH1 0x40 MLOAD PUSH3 0x461BCD PUSH1 0xE5 SHL DUP2 MSTORE PUSH1 0x4 ADD PUSH2 0x321 SWAP2 SWAP1 PUSH2 0x16C7 JUMP JUMPDEST DUP1 CALLDATALOAD PUSH1 0x1 PUSH1 0x1 PUSH1 0xA0 SHL SUB DUP2 AND DUP2 EQ PUSH2 0x519 JUMPI PUSH1 0x0 DUP1 REVERT JUMPDEST PUSH1 0x0 PUSH1 0x20 DUP3 DUP5 SUB SLT ISZERO PUSH2 0x1629 JUMPI DUP1 DUP2 REVERT JUMPDEST PUSH2 0x889 DUP3 PUSH2 0x1601 JUMP JUMPDEST PUSH1 0x0 DUP1 PUSH1 0x40 DUP4 DUP6 SUB SLT ISZERO PUSH2 0x1644 JUMPI DUP1 DUP2 REVERT JUMPDEST PUSH2 0x164D DUP4 PUSH2 0x1601 JUMP JUMPDEST SWAP5 PUSH1 0x20 SWAP4 SWAP1 SWAP4 ADD CALLDATALOAD SWAP4 POP POP POP JUMP JUMPDEST PUSH1 0x0 PUSH1 0x20 DUP3 DUP5 SUB SLT ISZERO PUSH2 0x166C JUMPI DUP1 DUP2 REVERT JUMPDEST DUP2 MLOAD DUP1 ISZERO ISZERO DUP2 EQ PUSH2 0x889 JUMPI DUP2 DUP3 REVERT JUMPDEST PUSH1 0x0 PUSH1 0x20 DUP3 DUP5 SUB SLT ISZERO PUSH2 0x168C JUMPI DUP1 DUP2 REVERT JUMPDEST POP CALLDATALOAD SWAP2 SWAP1 POP JUMP JUMPDEST PUSH1 0x0 PUSH1 0x20 DUP3 DUP5 SUB SLT ISZERO PUSH2 0x16A4 JUMPI DUP1 DUP2 REVERT JUMPDEST POP MLOAD SWAP2 SWAP1 POP JUMP JUMPDEST PUSH1 0x0 DUP3 MLOAD PUSH2 0x16BD DUP2 DUP5 PUSH1 0x20 DUP8 ADD PUSH2 0x17D4 JUMP JUMPDEST SWAP2 SWAP1 SWAP2 ADD SWAP3 SWAP2 POP POP JUMP JUMPDEST PUSH1 0x0 PUSH1 0x20 DUP3 MSTORE DUP3 MLOAD DUP1 PUSH1 0x20 DUP5 ADD MSTORE PUSH2 0x16E6 DUP2 PUSH1 0x40 DUP6 ADD PUSH1 0x20 DUP8 ADD PUSH2 0x17D4 JUMP JUMPDEST PUSH1 0x1F ADD PUSH1 0x1F NOT AND SWAP2 SWAP1 SWAP2 ADD PUSH1 0x40 ADD SWAP3 SWAP2 POP POP JUMP JUMPDEST PUSH1 0x20 DUP1 DUP3 MSTORE PUSH1 0x1A SWAP1 DUP3 ADD MSTORE PUSH32 0x546865206F66666572696E6720686173206E6F7420656E646564000000000000 PUSH1 0x40 DUP3 ADD MSTORE PUSH1 0x60 ADD SWAP1 JUMP JUMPDEST PUSH1 0x20 DUP1 DUP3 MSTORE DUP2 DUP2 ADD MSTORE PUSH32 0x4F776E61626C653A2063616C6C6572206973206E6F7420746865206F776E6572 PUSH1 0x40 DUP3 ADD MSTORE PUSH1 0x60 ADD SWAP1 JUMP JUMPDEST PUSH1 0x0 DUP3 NOT DUP3 GT ISZERO PUSH2 0x1779 JUMPI PUSH2 0x1779 PUSH2 0x1800 JUMP JUMPDEST POP ADD SWAP1 JUMP JUMPDEST PUSH1 0x0 DUP3 PUSH2 0x1799 JUMPI PUSH4 0x4E487B71 PUSH1 0xE0 SHL DUP2 MSTORE PUSH1 0x12 PUSH1 0x4 MSTORE PUSH1 0x24 DUP2 REVERT JUMPDEST POP DIV SWAP1 JUMP JUMPDEST PUSH1 0x0 DUP2 PUSH1 0x0 NOT DIV DUP4 GT DUP3 ISZERO ISZERO AND ISZERO PUSH2 0x17B8 JUMPI PUSH2 0x17B8 PUSH2 0x1800 JUMP JUMPDEST POP MUL SWAP1 JUMP JUMPDEST PUSH1 0x0 DUP3 DUP3 LT ISZERO PUSH2 0x17CF JUMPI PUSH2 0x17CF PUSH2 0x1800 JUMP JUMPDEST POP SUB SWAP1 JUMP JUMPDEST PUSH1 0x0 JUMPDEST DUP4 DUP2 LT ISZERO PUSH2 0x17EF JUMPI DUP2 DUP2 ADD MLOAD DUP4 DUP3 ADD MSTORE PUSH1 0x20 ADD PUSH2 0x17D7 JUMP JUMPDEST DUP4 DUP2 GT ISZERO PUSH2 0x140F JUMPI POP POP PUSH1 0x0 SWAP2 ADD MSTORE JUMP JUMPDEST PUSH4 0x4E487B71 PUSH1 0xE0 SHL PUSH1 0x0 MSTORE PUSH1 0x11 PUSH1 0x4 MSTORE PUSH1 0x24 PUSH1 0x0 REVERT INVALID LOG2 PUSH5 0x6970667358 0x22 SLT KECCAK256 0xD0 0xD9 SWAP1 AND ADD BLOCKHASH 0x49 SGT 0x5F CALLCODE 0xBD 0xEC PUSH19 0xD4A3B9968D0E45872B3E3FC2ADC54F6256DC91 PUSH5 0x736F6C6343 STOP ADDMOD MUL STOP CALLER "
        },
        "methodIdentifiers": {
          "DECIMALS()": "2e0f2625",
          "DEFIHORSE()": "92f83ea4",
          "END()": "efe7a504",
          "START()": "ba9a061a",
          "TOTAL_DISTRIBUTE_AMOUNT()": "aa1cf2a2",
          "claim()": "4e71d92d",
          "deposit(uint256)": "b6b55f25",
          "getAccumulatedAfterDeposit(address,uint256)": "ab3f8703",
          "getEstReceivedToken(address)": "2037730e",
          "getEstTokenPrice()": "ff1582ed",
          "getLockAmountAfterDeposit(address,uint256)": "1c3cf417",
          "getLockedAmount(address)": "929ec537",
          "getUserDeposited(address)": "f5686444",
          "getWithdrawableAmount(address)": "f6777175",
          "owner()": "8da5cb5b",
          "provided(address)": "9ddb9ee1",
          "renounceOwnership()": "715018a6",
          "totalProvided()": "02e3cb0b",
          "transferOwnership(address)": "f2fde38b",
          "withdraw(uint256)": "2e1a7d4d",
          "withdrawRemainedDEFIHORSE()": "09128d75",
          "withdrawSaleFunds()": "bbd50dab",
          "withdrawUnclaimedDEFIHORSE()": "e6610f69"
        }
      }
    }
  }
}