{
  "_format": "hh-sol-artifact-1",
  "contractName": "DefiHorse",
  "sourceName": "contracts/DefiHorse.sol",
  "abi": [
    {
      "inputs": [],
      "stateMutability": "nonpayable",
      "type": "constructor"
    },
    {
      "anonymous": false,
      "inputs": [
        {
          "indexed": true,
          "internalType": "address",
          "name": "owner",
          "type": "address"
        },
        {
          "indexed": true,
          "internalType": "address",
          "name": "spender",
          "type": "address"
        },
        {
          "indexed": false,
          "internalType": "uint256",
          "name": "value",
          "type": "uint256"
        }
      ],
      "name": "Approval",
      "type": "event"
    },
    {
      "anonymous": false,
      "inputs": [
        {
          "indexed": true,
          "internalType": "address",
          "name": "previousOwner",
          "type": "address"
        },
        {
          "indexed": true,
          "internalType": "address",
          "name": "newOwner",
          "type": "address"
        }
      ],
      "name": "OwnershipTransferred",
      "type": "event"
    },
    {
      "anonymous": false,
      "inputs": [
        {
          "indexed": false,
          "internalType": "address",
          "name": "account",
          "type": "address"
        }
      ],
      "name": "Paused",
      "type": "event"
    },
    {
      "anonymous": false,
      "inputs": [
        {
          "indexed": false,
          "internalType": "uint256",
          "name": "id",
          "type": "uint256"
        }
      ],
      "name": "Snapshot",
      "type": "event"
    },
    {
      "anonymous": false,
      "inputs": [
        {
          "indexed": true,
          "internalType": "address",
          "name": "from",
          "type": "address"
        },
        {
          "indexed": true,
          "internalType": "address",
          "name": "to",
          "type": "address"
        },
        {
          "indexed": false,
          "internalType": "uint256",
          "name": "value",
          "type": "uint256"
        }
      ],
      "name": "Transfer",
      "type": "event"
    },
    {
      "anonymous": false,
      "inputs": [
        {
          "indexed": false,
          "internalType": "address",
          "name": "account",
          "type": "address"
        }
      ],
      "name": "Unpaused",
      "type": "event"
    },
    {
      "inputs": [],
      "name": "TaxAddress",
      "outputs": [
        {
          "internalType": "address",
          "name": "",
          "type": "address"
        }
      ],
      "stateMutability": "view",
      "type": "function"
    },
    {
      "inputs": [],
      "name": "_taxFee",
      "outputs": [
        {
          "internalType": "uint256",
          "name": "",
          "type": "uint256"
        }
      ],
      "stateMutability": "view",
      "type": "function"
    },
    {
      "inputs": [
        {
          "internalType": "address",
          "name": "owner",
          "type": "address"
        },
        {
          "internalType": "address",
          "name": "spender",
          "type": "address"
        }
      ],
      "name": "allowance",
      "outputs": [
        {
          "internalType": "uint256",
          "name": "",
          "type": "uint256"
        }
      ],
      "stateMutability": "view",
      "type": "function"
    },
    {
      "inputs": [
        {
          "internalType": "address",
          "name": "spender",
          "type": "address"
        },
        {
          "internalType": "uint256",
          "name": "amount",
          "type": "uint256"
        }
      ],
      "name": "approve",
      "outputs": [
        {
          "internalType": "bool",
          "name": "",
          "type": "bool"
        }
      ],
      "stateMutability": "nonpayable",
      "type": "function"
    },
    {
      "inputs": [
        {
          "internalType": "address",
          "name": "account",
          "type": "address"
        }
      ],
      "name": "balanceOf",
      "outputs": [
        {
          "internalType": "uint256",
          "name": "",
          "type": "uint256"
        }
      ],
      "stateMutability": "view",
      "type": "function"
    },
    {
      "inputs": [
        {
          "internalType": "address",
          "name": "account",
          "type": "address"
        },
        {
          "internalType": "uint256",
          "name": "snapshotId",
          "type": "uint256"
        }
      ],
      "name": "balanceOfAt",
      "outputs": [
        {
          "internalType": "uint256",
          "name": "",
          "type": "uint256"
        }
      ],
      "stateMutability": "view",
      "type": "function"
    },
    {
      "inputs": [
        {
          "internalType": "uint256",
          "name": "amount",
          "type": "uint256"
        }
      ],
      "name": "burn",
      "outputs": [],
      "stateMutability": "nonpayable",
      "type": "function"
    },
    {
      "inputs": [
        {
          "internalType": "address",
          "name": "account",
          "type": "address"
        },
        {
          "internalType": "uint256",
          "name": "amount",
          "type": "uint256"
        }
      ],
      "name": "burnFrom",
      "outputs": [],
      "stateMutability": "nonpayable",
      "type": "function"
    },
    {
      "inputs": [],
      "name": "decimals",
      "outputs": [
        {
          "internalType": "uint8",
          "name": "",
          "type": "uint8"
        }
      ],
      "stateMutability": "view",
      "type": "function"
    },
    {
      "inputs": [
        {
          "internalType": "address",
          "name": "spender",
          "type": "address"
        },
        {
          "internalType": "uint256",
          "name": "subtractedValue",
          "type": "uint256"
        }
      ],
      "name": "decreaseAllowance",
      "outputs": [
        {
          "internalType": "bool",
          "name": "",
          "type": "bool"
        }
      ],
      "stateMutability": "nonpayable",
      "type": "function"
    },
    {
      "inputs": [
        {
          "internalType": "address",
          "name": "spender",
          "type": "address"
        },
        {
          "internalType": "uint256",
          "name": "addedValue",
          "type": "uint256"
        }
      ],
      "name": "increaseAllowance",
      "outputs": [
        {
          "internalType": "bool",
          "name": "",
          "type": "bool"
        }
      ],
      "stateMutability": "nonpayable",
      "type": "function"
    },
    {
      "inputs": [],
      "name": "name",
      "outputs": [
        {
          "internalType": "string",
          "name": "",
          "type": "string"
        }
      ],
      "stateMutability": "view",
      "type": "function"
    },
    {
      "inputs": [],
      "name": "owner",
      "outputs": [
        {
          "internalType": "address",
          "name": "",
          "type": "address"
        }
      ],
      "stateMutability": "view",
      "type": "function"
    },
    {
      "inputs": [],
      "name": "pause",
      "outputs": [],
      "stateMutability": "nonpayable",
      "type": "function"
    },
    {
      "inputs": [],
      "name": "paused",
      "outputs": [
        {
          "internalType": "bool",
          "name": "",
          "type": "bool"
        }
      ],
      "stateMutability": "view",
      "type": "function"
    },
    {
      "inputs": [],
      "name": "renounceOwnership",
      "outputs": [],
      "stateMutability": "nonpayable",
      "type": "function"
    },
    {
      "inputs": [
        {
          "internalType": "address",
          "name": "taxAddress",
          "type": "address"
        }
      ],
      "name": "setTaxAddress",
      "outputs": [],
      "stateMutability": "nonpayable",
      "type": "function"
    },
    {
      "inputs": [
        {
          "internalType": "uint256",
          "name": "taxFee",
          "type": "uint256"
        }
      ],
      "name": "setTaxFeePercent",
      "outputs": [],
      "stateMutability": "nonpayable",
      "type": "function"
    },
    {
      "inputs": [],
      "name": "snapshot",
      "outputs": [],
      "stateMutability": "nonpayable",
      "type": "function"
    },
    {
      "inputs": [],
      "name": "symbol",
      "outputs": [
        {
          "internalType": "string",
          "name": "",
          "type": "string"
        }
      ],
      "stateMutability": "view",
      "type": "function"
    },
    {
      "inputs": [],
      "name": "totalSupply",
      "outputs": [
        {
          "internalType": "uint256",
          "name": "",
          "type": "uint256"
        }
      ],
      "stateMutability": "view",
      "type": "function"
    },
    {
      "inputs": [
        {
          "internalType": "uint256",
          "name": "snapshotId",
          "type": "uint256"
        }
      ],
      "name": "totalSupplyAt",
      "outputs": [
        {
          "internalType": "uint256",
          "name": "",
          "type": "uint256"
        }
      ],
      "stateMutability": "view",
      "type": "function"
    },
    {
      "inputs": [
        {
          "internalType": "address",
          "name": "recipient",
          "type": "address"
        },
        {
          "internalType": "uint256",
          "name": "amount",
          "type": "uint256"
        }
      ],
      "name": "transfer",
      "outputs": [
        {
          "internalType": "bool",
          "name": "",
          "type": "bool"
        }
      ],
      "stateMutability": "nonpayable",
      "type": "function"
    },
    {
      "inputs": [
        {
          "internalType": "address",
          "name": "sender",
          "type": "address"
        },
        {
          "internalType": "address",
          "name": "recipient",
          "type": "address"
        },
        {
          "internalType": "uint256",
          "name": "amount",
          "type": "uint256"
        }
      ],
      "name": "transferFrom",
      "outputs": [
        {
          "internalType": "bool",
          "name": "",
          "type": "bool"
        }
      ],
      "stateMutability": "nonpayable",
      "type": "function"
    },
    {
      "inputs": [
        {
          "internalType": "address",
          "name": "newOwner",
          "type": "address"
        }
      ],
      "name": "transferOwnership",
      "outputs": [],
      "stateMutability": "nonpayable",
      "type": "function"
    },
    {
      "inputs": [],
      "name": "unpause",
      "outputs": [],
      "stateMutability": "nonpayable",
      "type": "function"
    }
  ],
  "bytecode": "0x60806040526001600a55600b80546001600160a01b0319167393a364bca26f754dabf95fc5ac3cb62196b655901790553480156200003c57600080fd5b506040518060400160405280600981526020016844656669486f72736560b81b815250604051806040016040528060038152602001620888c960eb1b81525081600390805190602001906200009392919062000459565b508051620000a990600490602084019062000459565b505050620000c6620000c06200010260201b60201c565b62000106565b6009805460ff60a01b19169055620000fc33620000e66012600a62000567565b620000f6906327d0df006200065f565b62000158565b620006ee565b3390565b600980546001600160a01b038381166001600160a01b0319831681179093556040519116919082907f8be0079c531659141344cd1fd0a4f28419497f9722a3daafe3b4186f6b6457e090600090a35050565b6001600160a01b038216620001b45760405162461bcd60e51b815260206004820152601f60248201527f45524332303a206d696e7420746f20746865207a65726f20616464726573730060448201526064015b60405180910390fd5b620001c2600083836200024f565b8060026000828254620001d69190620004ff565b90915550506001600160a01b0382166000908152602081905260408120805483929062000205908490620004ff565b90915550506040518181526001600160a01b038316906000907fddf252ad1be2c89b69c2b068fc378daa952ba7f163c4a11628f55a4df523b3ef9060200160405180910390a35050565b62000263600954600160a01b900460ff1690565b15620002a55760405162461bcd60e51b815260206004820152601060248201526f14185d5cd8589b194e881c185d5cd95960821b6044820152606401620001ab565b620002bd838383620002c260201b620008e01760201c565b505050565b620002da838383620002bd60201b620006b31760201c565b6001600160a01b0383166200030457620002f4826200032f565b620002fe62000360565b620002bd565b6001600160a01b0382166200031e57620002f4836200032f565b62000329836200032f565b620002bd825b6001600160a01b03811660009081526005602052604090206200035d90620003578362000372565b62000391565b50565b6200037060066200035760025490565b565b6001600160a01b0381166000908152602081905260409020545b919050565b60006200039d620003e0565b905080620003ab84620003fe565b1015620002bd578254600180820185556000858152602080822090930193909355938401805494850181558252902090910155565b6000620003f960086200045560201b6200092d1760201c565b905090565b805460009062000411575060006200038c565b81548290620004239060019062000681565b815481106200044257634e487b7160e01b600052603260045260246000fd5b906000526020600020015490506200038c565b5490565b82805462000467906200069b565b90600052602060002090601f0160209004810192826200048b5760008555620004d6565b82601f10620004a657805160ff1916838001178555620004d6565b82800160010185558215620004d6579182015b82811115620004d6578251825591602001919060010190620004b9565b50620004e4929150620004e8565b5090565b5b80821115620004e45760008155600101620004e9565b60008219821115620005155762000515620006d8565b500190565b80825b60018086116200052e57506200055e565b818704821115620005435762000543620006d8565b808616156200055157918102915b9490941c9380026200051d565b94509492505050565b60006200057b60001960ff85168462000582565b9392505050565b60008262000593575060016200057b565b81620005a2575060006200057b565b8160018114620005bb5760028114620005c657620005fa565b60019150506200057b565b60ff841115620005da57620005da620006d8565b6001841b915084821115620005f357620005f3620006d8565b506200057b565b5060208310610133831016604e8410600b841016171562000632575081810a838111156200062c576200062c620006d8565b6200057b565b6200064184848460016200051a565b808604821115620006565762000656620006d8565b02949350505050565b60008160001904831182151516156200067c576200067c620006d8565b500290565b600082821015620006965762000696620006d8565b500390565b600281046001821680620006b057607f821691505b60208210811415620006d257634e487b7160e01b600052602260045260246000fd5b50919050565b634e487b7160e01b600052601160045260246000fd5b61157480620006fe6000396000f3fe608060405234801561001057600080fd5b506004361061018e5760003560e01c8063715018a6116100de578063981b24d011610097578063a9059cbb11610071578063a9059cbb1461031e578063dd62ed3e14610331578063e98d8d151461036a578063f2fde38b1461037b5761018e565b8063981b24d0146102e5578063a1883d26146102f8578063a457c2d71461030b5761018e565b8063715018a61461028d57806379cc6790146102955780638456cb59146102a85780638da5cb5b146102b057806395d89b41146102d55780639711715a146102dd5761018e565b8063395093511161014b57806342966c681161012557806342966c68146102415780634ee2cd7e146102545780635c975abb1461026757806370a082311461027a5761018e565b8063395093511461021d5780633b124fe7146102305780633f4ba83a146102395761018e565b8063061c82d01461019357806306fdde03146101a8578063095ea7b3146101c657806318160ddd146101e957806323b872dd146101fb578063313ce5671461020e575b600080fd5b6101a66101a13660046113b5565b61038e565b005b6101b06103c6565b6040516101bd91906113cd565b60405180910390f35b6101d96101d436600461138c565b610458565b60405190151581526020016101bd565b6002545b6040519081526020016101bd565b6101d9610209366004611351565b61046f565b604051601281526020016101bd565b6101d961022b36600461138c565b610519565b6101ed600a5481565b6101a6610555565b6101a661024f3660046113b5565b610589565b6101ed61026236600461138c565b610596565b6101d9600954600160a01b900460ff1690565b6101ed610288366004611305565b6105df565b6101a66105fe565b6101a66102a336600461138c565b610632565b6101a66106b8565b6009546001600160a01b03165b6040516001600160a01b0390911681526020016101bd565b6101b06106ea565b6101a66106f9565b6101ed6102f33660046113b5565b61072b565b6101a6610306366004611305565b610756565b6101d961031936600461138c565b6107a2565b6101d961032c36600461138c565b61083b565b6101ed61033f36600461131f565b6001600160a01b03918216600090815260016020908152604080832093909416825291909152205490565b600b546001600160a01b03166102bd565b6101a6610389366004611305565b610848565b6009546001600160a01b031633146103c15760405162461bcd60e51b81526004016103b89061144a565b60405180910390fd5b600a55565b6060600380546103d5906114ed565b80601f0160208091040260200160405190810160405280929190818152602001828054610401906114ed565b801561044e5780601f106104235761010080835404028352916020019161044e565b820191906000526020600020905b81548152906001019060200180831161043157829003601f168201915b5050505050905090565b6000610465338484610931565b5060015b92915050565b600061047c848484610a55565b6001600160a01b0384166000908152600160209081526040808320338452909152902054828110156105015760405162461bcd60e51b815260206004820152602860248201527f45524332303a207472616e7366657220616d6f756e74206578636565647320616044820152676c6c6f77616e636560c01b60648201526084016103b8565b61050e8533858403610931565b506001949350505050565b3360008181526001602090815260408083206001600160a01b0387168452909152812054909161046591859061055090869061147f565b610931565b6009546001600160a01b0316331461057f5760405162461bcd60e51b81526004016103b89061144a565b610587610adc565b565b6105933382610b7f565b50565b6001600160a01b0382166000908152600560205260408120819081906105bd908590610cd9565b91509150816105d4576105cf856105df565b6105d6565b805b95945050505050565b6001600160a01b0381166000908152602081905260409020545b919050565b6009546001600160a01b031633146106285760405162461bcd60e51b81526004016103b89061144a565b6105876000610dde565b600061063e833361033f565b90508181101561069c5760405162461bcd60e51b8152602060048201526024808201527f45524332303a206275726e20616d6f756e74206578636565647320616c6c6f77604482015263616e636560e01b60648201526084016103b8565b6106a98333848403610931565b6106b38383610b7f565b505050565b6009546001600160a01b031633146106e25760405162461bcd60e51b81526004016103b89061144a565b610587610e30565b6060600480546103d5906114ed565b6009546001600160a01b031633146107235760405162461bcd60e51b81526004016103b89061144a565b610593610e9b565b600080600061073b846006610cd9565b915091508161074c5760025461074e565b805b949350505050565b6009546001600160a01b031633146107805760405162461bcd60e51b81526004016103b89061144a565b600b80546001600160a01b0319166001600160a01b0392909216919091179055565b3360009081526001602090815260408083206001600160a01b0386168452909152812054828110156108245760405162461bcd60e51b815260206004820152602560248201527f45524332303a2064656372656173656420616c6c6f77616e63652062656c6f77604482015264207a65726f60d81b60648201526084016103b8565b6108313385858403610931565b5060019392505050565b6000610465338484610a55565b6009546001600160a01b031633146108725760405162461bcd60e51b81526004016103b89061144a565b6001600160a01b0381166108d75760405162461bcd60e51b815260206004820152602660248201527f4f776e61626c653a206e6577206f776e657220697320746865207a65726f206160448201526564647265737360d01b60648201526084016103b8565b61059381610dde565b6001600160a01b038316610904576108f782610ef5565b6108ff610f1f565b6106b3565b6001600160a01b03821661091b576108f783610ef5565b61092483610ef5565b6106b382610ef5565b5490565b6001600160a01b0383166109935760405162461bcd60e51b8152602060048201526024808201527f45524332303a20617070726f76652066726f6d20746865207a65726f206164646044820152637265737360e01b60648201526084016103b8565b6001600160a01b0382166109f45760405162461bcd60e51b815260206004820152602260248201527f45524332303a20617070726f766520746f20746865207a65726f206164647265604482015261737360f01b60648201526084016103b8565b6001600160a01b0383811660008181526001602090815260408083209487168084529482529182902085905590518481527f8c5be1e5ebec7d5bd14f71427d1e84f3dd0314c0f7b2291e5b200ac8c7c3b925910160405180910390a3505050565b610a68600954600160a01b900460ff1690565b15610a855760405162461bcd60e51b81526004016103b890611420565b60006064600a5483610a9791906114b7565b610aa19190611497565b90506000610aaf82846114d6565b600b54909150610aca9086906001600160a01b031684610f2d565b610ad5858583610f2d565b5050505050565b610aef600954600160a01b900460ff1690565b610b325760405162461bcd60e51b815260206004820152601460248201527314185d5cd8589b194e881b9bdd081c185d5cd95960621b60448201526064016103b8565b6009805460ff60a01b191690557f5db9ee0a495bf2e6ff9c91a7834c1ba4fdd244a5e8aa4e537bd38aeae4b073aa335b6040516001600160a01b03909116815260200160405180910390a1565b6001600160a01b038216610bdf5760405162461bcd60e51b815260206004820152602160248201527f45524332303a206275726e2066726f6d20746865207a65726f206164647265736044820152607360f81b60648201526084016103b8565b610beb82600083611107565b6001600160a01b03821660009081526020819052604090205481811015610c5f5760405162461bcd60e51b815260206004820152602260248201527f45524332303a206275726e20616d6f756e7420657863656564732062616c616e604482015261636560f01b60648201526084016103b8565b6001600160a01b0383166000908152602081905260408120838303905560028054849290610c8e9084906114d6565b90915550506040518281526000906001600160a01b038516907fddf252ad1be2c89b69c2b068fc378daa952ba7f163c4a11628f55a4df523b3ef9060200160405180910390a36106b3565b60008060008411610d255760405162461bcd60e51b815260206004820152601660248201527504552433230536e617073686f743a20696420697320360541b60448201526064016103b8565b610d2d611142565b841115610d7c5760405162461bcd60e51b815260206004820152601d60248201527f4552433230536e617073686f743a206e6f6e6578697374656e7420696400000060448201526064016103b8565b6000610d888486611152565b8454909150811415610da1576000809250925050610dd7565b6001846001018281548110610dc657634e487b7160e01b600052603260045260246000fd5b906000526020600020015492509250505b9250929050565b600980546001600160a01b038381166001600160a01b0319831681179093556040519116919082907f8be0079c531659141344cd1fd0a4f28419497f9722a3daafe3b4186f6b6457e090600090a35050565b610e43600954600160a01b900460ff1690565b15610e605760405162461bcd60e51b81526004016103b890611420565b6009805460ff60a01b1916600160a01b1790557f62e78cea01bee320cd4e420270b5ea74000d11b0c9f74754ebdbfc544b05a258610b623390565b6000610eab600880546001019055565b6000610eb5611142565b90507f8030e83b04d87bef53480e26263266d6ca66863aa8506aca6f2559d18aa1cb6781604051610ee891815260200190565b60405180910390a1905090565b6001600160a01b038116600090815260056020526040902061059390610f1a836105df565b611231565b6105876006610f1a60025490565b6001600160a01b038316610f915760405162461bcd60e51b815260206004820152602560248201527f45524332303a207472616e736665722066726f6d20746865207a65726f206164604482015264647265737360d81b60648201526084016103b8565b6001600160a01b038216610ff35760405162461bcd60e51b815260206004820152602360248201527f45524332303a207472616e7366657220746f20746865207a65726f206164647260448201526265737360e81b60648201526084016103b8565b610ffe838383611107565b6001600160a01b038316600090815260208190526040902054818110156110765760405162461bcd60e51b815260206004820152602660248201527f45524332303a207472616e7366657220616d6f756e7420657863656564732062604482015265616c616e636560d01b60648201526084016103b8565b6001600160a01b038085166000908152602081905260408082208585039055918516815290812080548492906110ad90849061147f565b92505081905550826001600160a01b0316846001600160a01b03167fddf252ad1be2c89b69c2b068fc378daa952ba7f163c4a11628f55a4df523b3ef846040516110f991815260200190565b60405180910390a350505050565b61111a600954600160a01b900460ff1690565b156111375760405162461bcd60e51b81526004016103b890611420565b6106b38383836108e0565b600061114d60085490565b905090565b815460009061116357506000610469565b82546000905b808210156111cd57600061117d838361127b565b9050848682815481106111a057634e487b7160e01b600052603260045260246000fd5b906000526020600020015411156111b9578091506111c7565b6111c481600161147f565b92505b50611169565b600082118015611210575083856111e56001856114d6565b8154811061120357634e487b7160e01b600052603260045260246000fd5b9060005260206000200154145b15611229576112206001836114d6565b92505050610469565b509050610469565b600061123b611142565b9050806112478461129d565b10156106b3578254600180820185556000858152602080822090930193909355938401805494850181558252902090910155565b600061128a6002848418611497565b6112969084841661147f565b9392505050565b80546000906112ae575060006105f9565b815482906112be906001906114d6565b815481106112dc57634e487b7160e01b600052603260045260246000fd5b906000526020600020015490506105f9565b80356001600160a01b03811681146105f957600080fd5b600060208284031215611316578081fd5b611296826112ee565b60008060408385031215611331578081fd5b61133a836112ee565b9150611348602084016112ee565b90509250929050565b600080600060608486031215611365578081fd5b61136e846112ee565b925061137c602085016112ee565b9150604084013590509250925092565b6000806040838503121561139e578182fd5b6113a7836112ee565b946020939093013593505050565b6000602082840312156113c6578081fd5b5035919050565b6000602080835283518082850152825b818110156113f9578581018301518582016040015282016113dd565b8181111561140a5783604083870101525b50601f01601f1916929092016040019392505050565b60208082526010908201526f14185d5cd8589b194e881c185d5cd95960821b604082015260600190565b6020808252818101527f4f776e61626c653a2063616c6c6572206973206e6f7420746865206f776e6572604082015260600190565b6000821982111561149257611492611528565b500190565b6000826114b257634e487b7160e01b81526012600452602481fd5b500490565b60008160001904831182151516156114d1576114d1611528565b500290565b6000828210156114e8576114e8611528565b500390565b60028104600182168061150157607f821691505b6020821081141561152257634e487b7160e01b600052602260045260246000fd5b50919050565b634e487b7160e01b600052601160045260246000fdfea2646970667358221220a0b576ee26b5e611dfffcdf3c1be1e8a010ac775c1884dcdb94a6fbc5d9e1c2264736f6c63430008020033",
  "linkReferences": {},
  "deployedLinkReferences": {}
}