{
  "_format": "hh-sol-artifact-1",
  "contractName": "DefiHorseIBCO",
  "sourceName": "contracts/DefiHorseIBCO.sol",
  "abi": [
    {
      "inputs": [
        {
          "internalType": "contract IERC20",
          "name": "DFH",
          "type": "address"
        },
        {
          "internalType": "contract IERC20",
          "name": "_busd",
          "type": "address"
        }
      ],
      "stateMutability": "nonpayable",
      "type": "constructor"
    },
    {
      "anonymous": false,
      "inputs": [
        {
          "indexed": true,
          "internalType": "address",
          "name": "account",
          "type": "address"
        },
        {
          "indexed": false,
          "internalType": "uint256",
          "name": "userShare",
          "type": "uint256"
        },
        {
          "indexed": false,
          "internalType": "uint256",
          "name": "DFHAmount",
          "type": "uint256"
        }
      ],
      "name": "Claim",
      "type": "event"
    },
    {
      "anonymous": false,
      "inputs": [
        {
          "indexed": true,
          "internalType": "address",
          "name": "account",
          "type": "address"
        },
        {
          "indexed": false,
          "internalType": "uint256",
          "name": "amount",
          "type": "uint256"
        }
      ],
      "name": "Deposit",
      "type": "event"
    },
    {
      "anonymous": false,
      "inputs": [
        {
          "indexed": true,
          "internalType": "address",
          "name": "previousOwner",
          "type": "address"
        },
        {
          "indexed": true,
          "internalType": "address",
          "name": "newOwner",
          "type": "address"
        }
      ],
      "name": "OwnershipTransferred",
      "type": "event"
    },
    {
      "anonymous": false,
      "inputs": [
        {
          "indexed": true,
          "internalType": "address",
          "name": "account",
          "type": "address"
        },
        {
          "indexed": false,
          "internalType": "uint256",
          "name": "amount",
          "type": "uint256"
        }
      ],
      "name": "Withdraw",
      "type": "event"
    },
    {
      "inputs": [],
      "name": "DECIMALS",
      "outputs": [
        {
          "internalType": "uint256",
          "name": "",
          "type": "uint256"
        }
      ],
      "stateMutability": "view",
      "type": "function"
    },
    {
      "inputs": [],
      "name": "DEFIHORSE",
      "outputs": [
        {
          "internalType": "contract IERC20",
          "name": "",
          "type": "address"
        }
      ],
      "stateMutability": "view",
      "type": "function"
    },
    {
      "inputs": [],
      "name": "END",
      "outputs": [
        {
          "internalType": "uint256",
          "name": "",
          "type": "uint256"
        }
      ],
      "stateMutability": "view",
      "type": "function"
    },
    {
      "inputs": [],
      "name": "START",
      "outputs": [
        {
          "internalType": "uint256",
          "name": "",
          "type": "uint256"
        }
      ],
      "stateMutability": "view",
      "type": "function"
    },
    {
      "inputs": [],
      "name": "TOTAL_DISTRIBUTE_AMOUNT",
      "outputs": [
        {
          "internalType": "uint256",
          "name": "",
          "type": "uint256"
        }
      ],
      "stateMutability": "view",
      "type": "function"
    },
    {
      "inputs": [],
      "name": "claim",
      "outputs": [],
      "stateMutability": "nonpayable",
      "type": "function"
    },
    {
      "inputs": [
        {
          "internalType": "uint256",
          "name": "amount",
          "type": "uint256"
        }
      ],
      "name": "deposit",
      "outputs": [],
      "stateMutability": "nonpayable",
      "type": "function"
    },
    {
      "inputs": [
        {
          "internalType": "address",
          "name": "_user",
          "type": "address"
        },
        {
          "internalType": "uint256",
          "name": "amount",
          "type": "uint256"
        }
      ],
      "name": "getAccumulatedAfterDeposit",
      "outputs": [
        {
          "internalType": "uint256",
          "name": "",
          "type": "uint256"
        }
      ],
      "stateMutability": "view",
      "type": "function"
    },
    {
      "inputs": [
        {
          "internalType": "address",
          "name": "_user",
          "type": "address"
        }
      ],
      "name": "getEstReceivedToken",
      "outputs": [
        {
          "internalType": "uint256",
          "name": "",
          "type": "uint256"
        }
      ],
      "stateMutability": "view",
      "type": "function"
    },
    {
      "inputs": [],
      "name": "getEstTokenPrice",
      "outputs": [
        {
          "internalType": "uint256",
          "name": "",
          "type": "uint256"
        }
      ],
      "stateMutability": "view",
      "type": "function"
    },
    {
      "inputs": [
        {
          "internalType": "address",
          "name": "_user",
          "type": "address"
        },
        {
          "internalType": "uint256",
          "name": "amount",
          "type": "uint256"
        }
      ],
      "name": "getLockAmountAfterDeposit",
      "outputs": [
        {
          "internalType": "uint256",
          "name": "",
          "type": "uint256"
        }
      ],
      "stateMutability": "view",
      "type": "function"
    },
    {
      "inputs": [
        {
          "internalType": "address",
          "name": "_user",
          "type": "address"
        }
      ],
      "name": "getLockedAmount",
      "outputs": [
        {
          "internalType": "uint256",
          "name": "",
          "type": "uint256"
        }
      ],
      "stateMutability": "view",
      "type": "function"
    },
    {
      "inputs": [
        {
          "internalType": "address",
          "name": "_user",
          "type": "address"
        }
      ],
      "name": "getUserDeposited",
      "outputs": [
        {
          "internalType": "uint256",
          "name": "",
          "type": "uint256"
        }
      ],
      "stateMutability": "view",
      "type": "function"
    },
    {
      "inputs": [
        {
          "internalType": "address",
          "name": "_user",
          "type": "address"
        }
      ],
      "name": "getWithdrawableAmount",
      "outputs": [
        {
          "internalType": "uint256",
          "name": "",
          "type": "uint256"
        }
      ],
      "stateMutability": "view",
      "type": "function"
    },
    {
      "inputs": [],
      "name": "owner",
      "outputs": [
        {
          "internalType": "address",
          "name": "",
          "type": "address"
        }
      ],
      "stateMutability": "view",
      "type": "function"
    },
    {
      "inputs": [
        {
          "internalType": "address",
          "name": "",
          "type": "address"
        }
      ],
      "name": "provided",
      "outputs": [
        {
          "internalType": "uint256",
          "name": "",
          "type": "uint256"
        }
      ],
      "stateMutability": "view",
      "type": "function"
    },
    {
      "inputs": [],
      "name": "renounceOwnership",
      "outputs": [],
      "stateMutability": "nonpayable",
      "type": "function"
    },
    {
      "inputs": [],
      "name": "totalProvided",
      "outputs": [
        {
          "internalType": "uint256",
          "name": "",
          "type": "uint256"
        }
      ],
      "stateMutability": "view",
      "type": "function"
    },
    {
      "inputs": [
        {
          "internalType": "address",
          "name": "newOwner",
          "type": "address"
        }
      ],
      "name": "transferOwnership",
      "outputs": [],
      "stateMutability": "nonpayable",
      "type": "function"
    },
    {
      "inputs": [
        {
          "internalType": "uint256",
          "name": "amount",
          "type": "uint256"
        }
      ],
      "name": "withdraw",
      "outputs": [],
      "stateMutability": "nonpayable",
      "type": "function"
    },
    {
      "inputs": [],
      "name": "withdrawRemainedDEFIHORSE",
      "outputs": [],
      "stateMutability": "nonpayable",
      "type": "function"
    },
    {
      "inputs": [],
      "name": "withdrawSaleFunds",
      "outputs": [],
      "stateMutability": "nonpayable",
      "type": "function"
    },
    {
      "inputs": [],
      "name": "withdrawUnclaimedDEFIHORSE",
      "outputs": [],
      "stateMutability": "nonpayable",
      "type": "function"
    }
  ],
  "bytecode": "0x60a060405260006002553480156200001657600080fd5b50604051620019d3380380620019d38339810160408190526200003991620000e9565b62000044336200007c565b60609190911b6001600160601b031916608052600180546001600160a01b0319166001600160a01b0390921691909117905562000120565b600080546001600160a01b038381166001600160a01b0319831681178455604051919092169283917f8be0079c531659141344cd1fd0a4f28419497f9722a3daafe3b4186f6b6457e09190a35050565b80516001600160a01b0381168114620000e457600080fd5b919050565b60008060408385031215620000fc578182fd5b6200010783620000cc565b91506200011760208401620000cc565b90509250929050565b60805160601c61186a620001696000396000818161020d0152818161047c0152818161077b0152818161096e01528181610eae01528181610f9d0152611029015261186a6000f3fe608060405234801561001057600080fd5b506004361061014d5760003560e01c80639ddb9ee1116100c3578063e6610f691161007c578063e6610f6914610290578063efe7a50414610298578063f2fde38b146102a0578063f5686444146102b3578063f6777175146102dc578063ff1582ed146102ef5761014d565b80639ddb9ee11461022f578063aa1cf2a21461024f578063ab3f870314610257578063b6b55f251461026a578063ba9a061a1461027d578063bbd50dab146102885761014d565b80632e1a7d4d116101155780632e1a7d4d146101ad5780634e71d92d146101c0578063715018a6146101c85780638da5cb5b146101d0578063929ec537146101f557806392f83ea4146102085761014d565b806302e3cb0b1461015257806309128d751461016e5780631c3cf417146101785780632037730e1461018b5780632e0f26251461019e575b600080fd5b61015b60025481565b6040519081526020015b60405180910390f35b6101766102f7565b005b61015b61018636600461164c565b6104a6565b61015b610199366004611632565b61050b565b61015b670de0b6b3a764000081565b6101766101bb366004611695565b61051e565b6101766106ce565b6101766107e9565b6000546001600160a01b03165b6040516001600160a01b039091168152602001610165565b61015b610203366004611632565b61081f565b6101dd7f000000000000000000000000000000000000000000000000000000000000000081565b61015b61023d366004611632565b60036020526000908152604090205481565b61015b61082a565b61015b61026536600461164c565b610843565b610176610278366004611695565b610890565b61015b6361e26f5681565b610176610c4f565b610176610e04565b61015b611050565b6101766102ae366004611632565b611060565b61015b6102c1366004611632565b6001600160a01b031660009081526003602052604090205490565b61015b6102ea366004611632565b6110f8565b61015b611103565b6000546001600160a01b0316331461032a5760405162461bcd60e51b81526004016103219061174b565b60405180910390fd5b4261033b6361e26f566104b0611780565b106103585760405162461bcd60e51b815260040161032190611714565b600a61036d670de0b6b3a764000060026117b8565b6103779190611798565b600254106103e15760405162461bcd60e51b815260206004820152603160248201527f546f74616c2070726f7669646564206d757374206265206c657373207468616e604482015270081b5a5b9a5b585b081c1c9bdd9a591959607a1b6064820152608401610321565b60006001600a6103fa670de0b6b3a764000060026117b8565b6104049190611798565b60025461041d670de0b6b3a7640000630131c9406117b8565b61042791906117b8565b6104319190611798565b610447670de0b6b3a7640000630131c9406117b8565b61045191906117d7565b61045b91906117d7565b90506104a36104726000546001600160a01b031690565b6001600160a01b037f0000000000000000000000000000000000000000000000000000000000000000169083611169565b50565b6001600160a01b03821660009081526003602052604081205481906104ee906104d0908590611780565b6001600160a01b0386166000908152600460205260409020546111c0565b90506104f9816111d7565b61050390826117d7565b949350505050565b6000610516826112fb565b90505b919050565b6361e26f564211801561053f575061053c6361e26f566104b0611780565b42105b6105a25760405162461bcd60e51b815260206004820152602e60248201527f4f6e6c7920776974686472617761626c6520647572696e6720746865204f666660448201526d32b934b73390323ab930ba34b7b760911b6064820152608401610321565b336000908152600360205260409020548111156105f85760405162461bcd60e51b8152602060048201526014602482015273496e73756666696369656e742062616c616e636560601b6044820152606401610321565b6106013361135d565b8111156106415760405162461bcd60e51b815260206004820152600e60248201526d125b9d985b1a5908185b5bdd5b9d60921b6044820152606401610321565b33600090815260036020526040812080548392906106609084906117d7565b92505081905550806002600082825461067991906117d7565b9091555050600154610695906001600160a01b03163383611169565b60405181815233907f884edad9ce6fa2440d8a54cc123490eb96d2768479d49ff9c7366125a9424364906020015b60405180910390a250565b6106de6361e26f566104b0611780565b42116106fc5760405162461bcd60e51b815260040161032190611714565b336000908152600360205260409020546107485760405162461bcd60e51b815260206004820152600d60248201526c456d7074792062616c616e636560981b6044820152606401610321565b3360008181526003602052604081205491610762906112fb565b336000818152600360205260408120559091506107aa907f00000000000000000000000000000000000000000000000000000000000000006001600160a01b03169083611169565b604080518381526020810183905233917f34fcbac0073d7c3d388e51312faf357774904998eeb8fca628b9e6f65ee1cbf7910160405180910390a25050565b6000546001600160a01b031633146108135760405162461bcd60e51b81526004016103219061174b565b61081d60006113b3565b565b600061051682611403565b610840670de0b6b3a7640000630131c9406117b8565b81565b6001600160a01b0382166000908152600360205260408120546108899061086b908490611780565b6001600160a01b0385166000908152600460205260409020546111c0565b9392505050565b426361e26f5611156108e45760405162461bcd60e51b815260206004820181905260248201527f546865206f66666572696e6720686173206e6f742073746172746564207965746044820152606401610321565b6108f46361e26f566104b0611780565b4211156109435760405162461bcd60e51b815260206004820152601e60248201527f546865206f66666572696e672068617320616c726561647920656e64656400006044820152606401610321565b610959670de0b6b3a7640000630131c9406117b8565b6040516370a0823160e01b81523060048201527f00000000000000000000000000000000000000000000000000000000000000006001600160a01b0316906370a082319060240160206040518083038186803b1580156109b857600080fd5b505afa1580156109cc573d6000803e3d6000fd5b505050506040513d601f19601f820116820180604052508101906109f091906116ad565b14610a4e5760405162461bcd60e51b815260206004820152602860248201527f496e73756666696369656e742044454649484f52534520746f6b656e20696e2060448201526718dbdb9d1c9858dd60c21b6064820152608401610321565b600154604051636eb1769f60e11b815233600482015230602482015282916001600160a01b03169063dd62ed3e9060440160206040518083038186803b158015610a9757600080fd5b505afa158015610aab573d6000803e3d6000fd5b505050506040513d601f19601f82011682018060405250810190610acf91906116ad565b1015610b1d5760405162461bcd60e51b815260206004820152601960248201527f43616c6c6572206d75737420617070726f7665206669727374000000000000006044820152606401610321565b6001546040516323b872dd60e01b8152336004820152306024820152604481018390526001600160a01b03909116906323b872dd90606401602060405180830381600087803b158015610b6f57600080fd5b505af1158015610b83573d6000803e3d6000fd5b505050506040513d601f19601f82011682018060405250810190610ba79190611675565b508060026000828254610bba9190611780565b90915550503360009081526003602052604081208054839290610bde908490611780565b909155505033600090815260046020908152604080832054600390925290912054610c0991906111c0565b33600081815260046020526040908190209290925590517fe1fffcc4923d04b559f4d29a8bfc6cda04eb5b0d3c460751c2402c5c5cc9109c906106c39084815260200190565b6000546001600160a01b03163314610c795760405162461bcd60e51b81526004016103219061174b565b42610c8a6361e26f566104b0611780565b10610ca75760405162461bcd60e51b815260040161032190611714565b6001546040516370a0823160e01b81523060048201526000916001600160a01b0316906370a082319060240160206040518083038186803b158015610ceb57600080fd5b505afa158015610cff573d6000803e3d6000fd5b505050506040513d601f19601f82011682018060405250810190610d2391906116ad565b11610d705760405162461bcd60e51b815260206004820181905260248201527f42616c616e6365206f662074686520636f6e747261637420697320656d7074796044820152606401610321565b6001546040516370a0823160e01b815230600482015261081d9133916001600160a01b03909116906370a082319060240160206040518083038186803b158015610db957600080fd5b505afa158015610dcd573d6000803e3d6000fd5b505050506040513d601f19601f82011682018060405250810190610df191906116ad565b6001546001600160a01b03169190611169565b6000546001600160a01b03163314610e2e5760405162461bcd60e51b81526004016103219061174b565b42610e3f6361e26f566104b0611780565b610e4c9062278d00611780565b10610e995760405162461bcd60e51b815260206004820152601960248201527f5769746864726177616c20697320756e617661696c61626c65000000000000006044820152606401610321565b6040516370a0823160e01b81523060048201527f00000000000000000000000000000000000000000000000000000000000000006001600160a01b0316906370a082319060240160206040518083038186803b158015610ef857600080fd5b505afa158015610f0c573d6000803e3d6000fd5b505050506040513d601f19601f82011682018060405250810190610f3091906116ad565b610f735760405162461bcd60e51b81526020600482015260146024820152734e6f20746f6b656e20746f20776974686472617760601b6044820152606401610321565b61081d610f886000546001600160a01b031690565b6040516370a0823160e01b81523060048201527f00000000000000000000000000000000000000000000000000000000000000006001600160a01b0316906370a082319060240160206040518083038186803b158015610fe757600080fd5b505afa158015610ffb573d6000803e3d6000fd5b505050506040513d601f19601f8201168201806040525081019061101f91906116ad565b6001600160a01b037f0000000000000000000000000000000000000000000000000000000000000000169190611169565b6108406361e26f566104b0611780565b6000546001600160a01b0316331461108a5760405162461bcd60e51b81526004016103219061174b565b6001600160a01b0381166110ef5760405162461bcd60e51b815260206004820152602660248201527f4f776e61626c653a206e6577206f776e657220697320746865207a65726f206160448201526564647265737360d01b6064820152608401610321565b6104a3816113b3565b60006105168261135d565b600061111b670de0b6b3a7640000630131c9406117b8565b670de0b6b3a7640000611150600254600a670de0b6b3a7640000600261114191906117b8565b61114b9190611798565b6111c0565b61115a91906117b8565b6111649190611798565b905090565b604080516001600160a01b038416602482015260448082018490528251808303909101815260649091019091526020810180516001600160e01b031663a9059cbb60e01b1790526111bb90849061142f565b505050565b6000818310156111d05781610889565b5090919050565b6000600a6111ef670de0b6b3a76400006107d06117b8565b6111f99190611798565b821161121d57606461120c8360466117b8565b6112169190611798565b9050610519565b611232670de0b6b3a764000062030d406117b8565b82116112d257600061124c670de0b6b3a764000084611798565b90506000633b9aca00611261836106ad6117b8565b61126b9190611798565b90506000606461127c8460446117b8565b6112869190611798565b905060006103e88261129b85620116c0611780565b6112a591906117d7565b6112af9190611798565b905060646112bd82886117b8565b6112c79190611798565b945050505050610519565b6112e7670de0b6b3a764000062030d406117b8565b82111561051957606461120c8360036117b8565b6001600160a01b0381166000908152600360205260408120546002805461133291600a9061114190670de0b6b3a7640000906117b8565b81611349670de0b6b3a7640000630131c9406117b8565b61135391906117b8565b6108899190611798565b6001600160a01b038116600090815260046020526040812054610889611382826111d7565b61138b85611403565b6001600160a01b0386166000908152600360205260409020546113ae91906117d7565b611501565b600080546001600160a01b038381166001600160a01b0319831681178455604051919092169283917f8be0079c531659141344cd1fd0a4f28419497f9722a3daafe3b4186f6b6457e09190a35050565b6001600160a01b038116600090815260046020526040812054611425816111d7565b61088990826117d7565b6000611484826040518060400160405280602081526020017f5361666545524332303a206c6f772d6c6576656c2063616c6c206661696c6564815250856001600160a01b03166115109092919063ffffffff16565b8051909150156111bb57808060200190518101906114a29190611675565b6111bb5760405162461bcd60e51b815260206004820152602a60248201527f5361666545524332303a204552433230206f7065726174696f6e20646964206e6044820152691bdd081cdd58d8d9595960b21b6064820152608401610321565b60008183106111d05781610889565b6060610503848460008585843b6115695760405162461bcd60e51b815260206004820152601d60248201527f416464726573733a2063616c6c20746f206e6f6e2d636f6e74726163740000006044820152606401610321565b600080866001600160a01b0316858760405161158591906116c5565b60006040518083038185875af1925050503d80600081146115c2576040519150601f19603f3d011682016040523d82523d6000602084013e6115c7565b606091505b50915091506115d78282866115e2565b979650505050505050565b606083156115f1575081610889565b8251156116015782518084602001fd5b8160405162461bcd60e51b815260040161032191906116e1565b80356001600160a01b038116811461051957600080fd5b600060208284031215611643578081fd5b6108898261161b565b6000806040838503121561165e578081fd5b6116678361161b565b946020939093013593505050565b600060208284031215611686578081fd5b81518015158114610889578182fd5b6000602082840312156116a6578081fd5b5035919050565b6000602082840312156116be578081fd5b5051919050565b600082516116d78184602087016117ee565b9190910192915050565b60006020825282518060208401526117008160408501602087016117ee565b601f01601f19169190910160400192915050565b6020808252601a908201527f546865206f66666572696e6720686173206e6f7420656e646564000000000000604082015260600190565b6020808252818101527f4f776e61626c653a2063616c6c6572206973206e6f7420746865206f776e6572604082015260600190565b600082198211156117935761179361181e565b500190565b6000826117b357634e487b7160e01b81526012600452602481fd5b500490565b60008160001904831182151516156117d2576117d261181e565b500290565b6000828210156117e9576117e961181e565b500390565b60005b838110156118095781810151838201526020016117f1565b83811115611818576000848401525b50505050565b634e487b7160e01b600052601160045260246000fdfea2646970667358221220c134cf7f1e05259225181ae18cd4c79661f14eb07bb17e1bdffb5f27bee2ed5d64736f6c63430008020033",
  "linkReferences": {},
  "deployedLinkReferences": {}
}